:020000040000FA
:100000000A128A11D02FFF1B0D2883137F18831724
:100010000008840A0319FF0A080000308A00040857
:10002000840A82070034253463342534633425344C
:100030006334253463342534633425346334253400
:100040006334253463340A34003452346534633401
:10005000693465347634653464342034253473343B
:100060000A34003442344F344F3454344534443429
:100070000A34003428346E3475346C346C342934CA
:0200800000344A
:100714000134023403340434053461308312031386
:100724009400403083160313940007168712871130
:100734000800F00083160313981CA12BA22B9C2BFA
:1007440070088312031399000800FB007908F10074
:100754007A08F2007B080A128A118B240A128A1181
:100764000800F9007708F1007808F20079082038C9
:100774000A128A1163240A128A110800FF300A122D
:100784008A11DD230A128A11F300731BCA2BCC2BA6
:100794000130CD2B00300800F000700883120313E1
:1007A400930083160313141CD82BD92BD32B831239
:1007B400031313080800F10083120313881171084E
:1007C4000A128A11CE230A128A11F2008312031329
:1007D4008815720808007030FA007A30F700F801C2
:1007E400F80A07300A128A11B3230A128A11E13077
:1007F4000A128A11DD230A128A11E2300A128A11BE
:10080400DD230A128A110800F500F6011C2C760873
:100814007007F2007208840083130008F30076085E
:100824007507F40074088400730880000130F20036
:100834007208F60771087602031C212C222C092C5D
:1008440008007C30F900FA01FA0A00300A128A1111
:10085400A7230A128A118312031308157C1C332C54
:10086400342C352C402C7C147C30F700F801F80A29
:1008740000300A128A11B3230A128A110800831263
:100884000313A0002008F9007C08FA0061300A1262
:100894008A11A7230A128A11E2300A128A11DD236F
:1008A4000A128A11403083120313A1002130F70089
:1008B400F801F80A07300A128A11B3230A128A11BE
:1008C4000800F40083120313881174080A128A11B1
:1008D400CE230A128A11F500F601802C76087107DE
:1008E400F30073088400831300080A128A11CE23CC
:1008F4000A128A110130F3007308F60772087602AF
:10090400031C852C862C702C831203138815750800
:100914000800F60083120313881176080A128A115C
:10092400CE230A128A11F700F801B12C7808710756
:10093400F30073088400831300080A128A11CE237B
:100944000A128A11F40078087107F500750884000A
:100954007408831380000130F3007308F8077208E9
:100964007802031CB62CB72C982C83120313881519
:1009740077080800F601F701DC2C76087107F4000B
:100984007208F3000318F30AF61FC92CF303730863
:10099400F500740884008317751C831300080A1279
:1009A4008A119B230A128A110130F6070318F70AE9
:1009B4000030F70776087107F4007208F300031893
:1009C400F30AF61FE62CF3037308F5007408840099
:1009D4008317751C83130008031DF12CF22CBF2C04
:1009E4000800831603131815831203132608AE0098
:1009F4002708AF002808B0002908B100043003100C
:100A0400AE0DAF0DB00DB10DFF3E031D012D31082C
:100A1400F3003008F2002F08F1002E08F000260839
:100A2400B2002708B3002808B4002908B500043030
:100A34000310B20DB30DB40DB50DFF3E031D1A2DF9
:100A44002A08B6002B08B7002C08B8002D08B900F6
:100A54003208B6023308031C330F312D322DB7028E
:100A64003408031C340F372D382DB8023508031C05
:100A7400350F3D2D3E2DB9023908F7003808F60030
:100A84003708F5003608F4000A128A11CF250A1235
:100A94008A11700883160313990018128312031322
:100AA400981783160313871707178312031318164F
:100AB40083160313981608007030831603138F04EB
:100AC400003083120313A9000030A8002530A700CA
:100AD4008030A6000030AD007A30AC001230AB009C
:100AE4000030AA000A128A11F3240A128A11A030D3
:100AF40083120313A0000030A1002030A2000A12C8
:100B04008A116C260A128A11A030F1000030F2001A
:100B14000A128A11BC240A128A110A128A118F231A
:100B24000A128A110330FB00E0300A128A111327DB
:100B34000A128A110A128A1123240A128A110A1229
:100B44008A11C0230A128A11003A0319AA2DAB2D67
:100B5400A12D0330FC003A300A128A1141240A12F2
:100B64008A11903083120313A0000130A1001330C6
:100B7400A2003A30A3000A128A116C260A128A11C2
:100B84009030F1000130F2000A128A11BC240A12DA
:100B94008A11A12D0A128A11002883120313A101BC
:100BA400F31FD52DD62DE32DF009F109F209F30930
:100BB400F00A0319F10A0319F20A0319F30AA1014D
:100BC400A10AF71FE62DE72DF62DF409F509F6091C
:100BD400F709F40A0319F50A0319F60A0319F70ABF
:100BE4000130F8007808A1060030A5000030A40008
:100BF4000030A3000030A200730872047104700472
:100C04000319052E062E532EA001A00A162E01301C
:100C1400F8000310F00DF10DF20DF30DF80B0B2E8F
:100C24000130F8007808A007F31F192E1A2E092E98
:100C34000130F8000310A20DA30DA40DA50DF80BAF
:100C44001C2E73087702031D312E72087602031DD1
:100C5400312E71087502031D312E70087402031CB5
:100C6400342E352E442E7008F4027108031C710FC3
:100C7400F5027208031C720FF6027308031C730F4B
:100C8400F702221401300310F30CF20CF10CF00CF7
:100C9400FF3E031D452E0130A002031D522E532E8C
:100CA4001A2E21080319572E582E632EA209A309C0
:100CB400A409A509A20A0319A30A0319A40A03197A
:100CC400A50A2508F3002408F2002308F1002208ED
:100CD400F00008002330F200FA2E253075060319BF
:100CE400742E752E832E200884008317211C8313F1
:100CF400750880000130A0070318A10A0030A1077D
:100D0400FA2EDD2E7208840083130008F3000030ED
:100D1400F4000130F0007008F20773087404031D36
:100D2400942E952EB72E2830F3008030F400B72E81
:100D34007408FF00730884000A128A1103200A123F
:100D44008A11F000200884008317211C8313700883
:100D540080000130F3070318F40A0030F40701306F
:100D6400A0070318A10A0030A1077408FF00730844
:100D740084000A128A1103200A128A11003A031D00
:100D8400C42EC52E9A2EFA2E7208840083130008EE
:100D9400F5000230F0007008F20720088400831781
:100DA400211C8313750880000130A0070318A10AD1
:100DB4000030A107FA2E0130A207FF302207840079
:100DC4000A128A110D200A128A11F500F000F101AD
:100DD4007108003A0319EF2ECF2E7008003A031958
:100DE4000C2F633A0319C62E103A0319842ECF2E02
:100DF400013083120313A207FF30220784000A1272
:100E04008A110D200A128A11F5007508031D0B2F93
:100E14000C2F6F2E200884008317211C831380015C
:100E2400080083120313A00083160313881108110A
:100E34000630FD003030FC00FC0B1E2FFD0B1E2F76
:100E4400000083120313881508110630FD003030AA
:100E5400FC00FC0B2B2FFD0B2B2F00000B308312FF
:100E64000313A1002130F700F801F80A00300A1238
:100E74008A11B3230A128A1183120313A1012130A8
:100E8400F700F801F80A01300A128A11B3230A1292
:100E94008A1183120313A101A10A2130F700F8017A
:100EA400F80A02300A128A11B3230A128A11831231
:100EB4000313A101A10A2130F700F801F80A033055
:100EC4000A128A11B3230A128A1183120313A1018D
:100ED4002130F700F801F80A04300A128A11B3230A
:100EE4000A128A1183120313A101A10A2130F70007
:100EF400F801F80A05300A128A11B3230A128A117A
:100F0400263083120313A1002130F700F801F80AF8
:100F140006300A128A11B3230A128A117B0883123B
:100F24000313A1002130F700F801F80A11300A1266
:100F34008A11B3230A128A11831203132008F000C2
:100F4400F101F10A21300A128A1106240A128A11C7
:100F54002130F700F801F80A0A300A128A11B32383
:100F64000A128A11831203132008F000F101F10A16
:100F740021300A128A1106240A128A112130F7003C
:100F8400F801F80A10300A128A11B3230A128A11DE
:100F94000A128A11ED230A128A1108008316031318
:100FA4000A128A118A230A128A11E0000A128A118B
:100FB4008B230A128A11E1000A128A118C230A1265
:100FC4008A11E2000A128A118D230A128A11E3009F
:100FD4000A128A118E230A128A11E400831203135F
:100FE400BD01BE01BF01C001C101C201C301C401F1
:0C0FF400C501C60183010A128A115E2D9E
:04400E00F22CFF3F52
:00000001FF
