:020000040000FA
:100000000A128A11E02FFF1B0D2883137F18831714
:100010000008840A0319FF0A080000308A00040857
:10002000840A82070034253463342534633425344C
:100030006334253463342534633425346334253400
:100040006334253463340A34003442344F344F343B
:100050005434453444340A34003441344C34443448
:10006000413400344734463445344134003442345A
:080070005534533441340034CF
:10083C00B5342334A534F00083160313981C272CED
:10084C00282C222C70088312031399000800FA003C
:10085C007808F1007908F2007A080A128A11382512
:10086C000A128A1108006130831203139400831654
:10087C000313940114179417871207168711080095
:10088C00FA007808F1007908F2007A0820380A1288
:10089C008A1138250A128A110800F0007008831298
:1008AC000313930083160313141C5D2C5E2C582C1D
:1008BC008312031313080800F10083120313881129
:1008CC0071080A128A1153240A128A11F200831237
:1008DC000313881572080800FD007D08F8007B08DA
:1008EC00F900A0300A128A1146240A128A118312C6
:1008FC00031308150D30FC00FC0B822C8312031320
:10090C00081108007030FB007B30F800F901F90A7F
:10091C0007300A128A1146240A128A11E1300A128F
:10092C008A1162240A128A11E2300A128A11622494
:10093C000A128A1108007B30F800F901F90A00301C
:10094C000A128A112D240A128A117B18AE2CAF2C94
:10095C00B02CC12CFE30FF007F08FB057B30F8006B
:10096C00F901F90A00300A128A1146240A128A1176
:10097C008312031308110800F300F101F201D92CC2
:10098C007108730784000A128A110D200A128A1149
:10099C000A128A1121240A128A110130F107031854
:1009AC00F20A0030F2077108730784000A128A11E8
:1009BC000D200A128A11003A031DE52CE62CC62CD8
:1009CC000800F400F501052D750870078400710806
:1009DC000318710A83120313FF000A128A110320F1
:1009EC000A128A11FF0075087407F300730884005B
:1009FC007F08831380000130FF007F08F507720821
:100A0C007502031C0A2D0B2DEA2C0800831203130C
:100A1C00A3000A128A11A1240A128A118312031349
:100A2C002008FB0023080A128A1172240A128A1168
:100A3C00FF300A128A1162240A128A1183120313DC
:100A4C00A100A11E2A2D2B2D1E2D2030A2002230FC
:100A5C00F800F901F90A07300A128A1146240A1221
:100A6C008A110800F50083120313881175080A1205
:100A7C008A1153240A128A11F600F7015E2D7708A9
:100A8C007107F30073088400831300080A128A119B
:100A9C0053240A128A11FF0077087107F4007408B6
:100AAC0084007F08831380000130FF007F08F70764
:100ABC0072087702031C632D642D452D83120313DA
:100ACC008815760808008316031318158312031370
:100ADC002608AE002708AF002808B0002908B1008E
:100AEC0004300310AE0DAF0DB00DB10DFF3E031D64
:100AFC00772D3108F3003008F2002F08F1002E0892
:100B0C00F0002608B2002708B3002808B400290812
:100B1C00B50004300310B20DB30DB40DB50DFF3E8E
:100B2C00031D902D2A08B6002B08B7002C08B8001E
:100B3C002D08B9003208B6023308031C330FA72D59
:100B4C00A82DB7023408031C340FAD2DAE2DB802FE
:100B5C003508031C350FB32DB42DB9023908F70035
:100B6C003808F6003708F5003608F4000A128A1126
:100B7C00D4250A128A1170088316031399001812CF
:100B8C0083120313981783160313871707178312FF
:100B9C0003131816831603139816080083120313F5
:100BAC00A101F31FDA2DDB2DE82DF009F109F20973
:100BBC00F309F00A0319F10A0319F20A0319F30AEB
:100BCC00A101A10AF71FEB2DEC2DFB2DF409F50962
:100BDC00F609F709F40A0319F50A0319F60A0319B9
:100BEC00F70A0130FF007F08A1060030A500003095
:100BFC00A4000030A3000030A2007308720471043A
:100C0C00700403190A2E0B2E582EA001A00A1B2EBD
:100C1C000130F8000310F00DF10DF20DF30DF80B8F
:100C2C00102E0130FF007F08A007F31F1E2E1F2E71
:100C3C000E2E0130F8000310A20DA30DA40DA50D6E
:100C4C00F80B212E73087702031D362E72087602DC
:100C5C00031D362E71087502031D362E70087402A2
:100C6C00031C392E3A2E492E7008F4027108031C0D
:100C7C00710FF5027208031C720FF6027308031C45
:100C8C00730FF702221401300310F30CF20CF10C69
:100C9C00F00CFF3E031D4A2E0130A002031D572EFF
:100CAC00582E1F2E210803195C2E5D2E682EA209CA
:100CBC00A309A409A509A20A0319A30A0319A40AE2
:100CCC000319A50A2508F3002408F2002308F100F3
:100CDC002208F00008007030831603138F040030D4
:100CEC0083120313A9000030A8002530A700803020
:100CFC00A6000030AD007A30AC001230AB000030F2
:100D0C00AA000A128A1169250A128A1113300A12D2
:100D1C008A11C2240A128A110A128A1139240A125F
:100D2C008A110530FC001B300A128A1122270A1284
:100D3C008A110A128A11A1240A128A11063083120E
:100D4C000313BB002F30BA00BA0BAA2EBB0BAA2E72
:100D5C00AF2E1B30F0008030F1000530F2003D303A
:100D6C000A128A11E7240A128A110530831203131E
:100D7C00A0003D300A128A110C250A128A11033088
:100D8C0083120313BC000830BB007630BA00BA0BD8
:100D9C00CD2EBB0BCD2EBC0BCD2E00002530F00084
:100DAC008030F1000530F2003D300A128A11E72440
:100DBC000A128A11053083120313A0003D300A1267
:100DCC008A110C250A128A11033083120313BC00FA
:100DDC000830BB007630BA00BA0BF22EBB0BF22EE9
:100DEC00BC0BF22E00002030F0008030F1000530FA
:100DFC00F2003D300A128A11E7240A128A110530DA
:100E0C0083120313A0003D300A128A110C250A121A
:100E1C008A11033083120313BC000830BB007630F8
:100E2C00BA00BA0B172FBB0B172FBC0B172F0000D8
:100E3C00AF2E0A128A110028831603138811081189
:100E4C00063083120313A1002F30A000A00B2C2F0F
:100E5C00A10B2C2F312F8312031388150811063088
:100E6C0083120313A1002F30A000A00B3B2FA10B6A
:100E7C003B2F402F0B3083120313A3002330F800B9
:100E8C00F901F90A00300A128A1146240A128A1151
:100E9C0083120313A3012330F800F901F90A01307E
:100EAC000A128A1146240A128A1183120313A3010F
:100EBC00A30A2330F800F901F90A02300A128A1148
:100ECC0046240A128A1183120313A301A30A2330A6
:100EDC00F800F901F90A03300A128A1146240A12A1
:100EEC008A1183120313A3012330F800F901F90AC4
:100EFC0004300A128A1146240A128A11831203132F
:100F0C00A301A30A2330F800F901F90A05300A12EB
:100F1C008A1146240A128A11263083120313A30065
:100F2C002330F800F901F90A06300A128A11462416
:100F3C000A128A11053083120313A3002330F80020
:100F4C00F901F90A11300A128A1146240A128A117F
:100F5C004C30F0000030F1000330F20023300A1264
:100F6C008A11E7240A128A112330F8000330F900A1
:100F7C000A300A128A1146240A128A114C30F000E7
:100F8C000030F1000330F20023300A128A11E724FA
:100F9C000A128A112330F8000330F90010300A12BB
:100FAC008A1146240A128A110A128A1188240A12FA
:100FBC008A1108000A128A111E240A128A11CC0006
:100FCC000A128A111F240A128A11CD000A128A11E0
:100FDC0020240A128A11CE00C201C301C401C5012A
:100FEC00C601C701C801C901CA01CB0183010A129C
:040FFC008A11712EB7
:04400E00F22CFF3F52
:00000001FF
