:020000040000FA
:100000000A128A11BE2F00308A000408840A82076F
:100010000034253463342534633425346334253483
:100020006334253463342534633425346334253410
:1000300063340A34003442344F344F34543445343A
:0600400044340A340034D0
:100750004134423400340134023403340434053467
:100760006130831203139400403083160313940006
:100770000716871287110800F00083160313981CD0
:10078000C22BC32BBD2B70088312031399000800E2
:10079000FA007808F1007908F2007A080A128A1142
:1007A000BD240A128A110800FA007808F1007908BD
:1007B000F2007A0820380A128A11BD240A128A111E
:1007C0000800F000700883120313930083160313CC
:1007D000141CEB2BEC2BE62B8312031313080800DD
:1007E000F10083120313881171080A128A11E123A0
:1007F0000A128A11F2008312031388157208080086
:10080000FD007D08F8007B08F900A0300A128A116B
:10081000D4230A128A118312031308150D30FC0029
:10082000FC0B102C83120313081108007030FB001E
:100830007B30F800F901F90A07300A128A11D42333
:100840000A128A11E1300A128A11F0230A128A115F
:10085000E2300A128A11F0230A128A110800F40009
:10086000F501452C75087007F200720884008313A7
:100870000008FF0075087407F300730884007F0800
:1008800080000130FF007F08F50771087502031C26
:100890004A2C4B2C322C0800F400F201F301612C9D
:1008A00072087407F1007108840000080A128A11A6
:1008B000BC230A128A110130F2070318F30A003030
:1008C000F30772087407F1007108840083130008AD
:1008D000031D6B2C6C2C502C08007B30F800F901A8
:1008E000F90A00300A128A11C8230A128A118312E7
:1008F000031308117B187D2C7E2C7F2C902CFE304E
:10090000FF007F08FB057B30F800F901F90A003091
:100910000A128A11D4230A128A11831203130811AE
:10092000080083120313A2000A128A116D240A120E
:100930008A11831203132008FB0022080A128A116D
:1009400000240A128A11FF300A128A11F0230A12B7
:100950008A1183120313A100A11EAF2CB02CA32C6B
:100960002030A3002330F800F901F90A07300A12F9
:100970008A11D4230A128A110800F5008312031386
:10098000881175080A128A11E1230A128A11F600E9
:10099000F701E32C77087107F300730884008313D1
:1009A00000080A128A11E1230A128A11FF0077084F
:1009B0007107F400740884007F08831380000130FD
:1009C000FF007F08F70772087702031CE82CE92C68
:1009D000CA2C83120313881576080800F40021300E
:1009E000F200302D253073060319F72CF82C022D58
:1009F000740884007308831380000130FF007F08AF
:100A0000F407302D162D7208840083130008F300BC
:100A10000230FF007F08F207740884007308831314
:100A200080000130FF007F08F407302D0130A0075F
:100A3000FF30200784000A128A1103200A128A114B
:100A4000F300F000F1017108003A0319282D0C2D74
:100A50007008003A0319422D633A0319032D0C2D37
:100A6000013083120313A007FF30200784000A120D
:100A70008A1103200A128A11F3007308031D412D05
:100A8000422DF22C74088400831380010800831621
:100A900003131815831203132608AE002708AF00AE
:100AA0002808B0002908B10004300310AE0DAF0DC6
:100AB000B00DB10DFF3E031D552D3108F300300878
:100AC000F2002F08F1002E08F0002608B2002708D7
:100AD000B3002808B4002908B50004300310B20D93
:100AE000B30DB40DB50DFF3E031D6E2D2A08B600E3
:100AF0002B08B7002C08B8002D08B9003208B60240
:100B00003308031C330F852D862DB7023408031CD0
:100B1000340F8B2D8C2DB8023508031C350F912D09
:100B2000922DB9023908F7003808F6003708F500A9
:100B30003608F4000A128A11B2250A128A117008C6
:100B40008316031399001812831203139817831640
:100B5000031387170717831203131816831603133B
:100B60009816080083120313A101F31FB82DB92DA5
:100B7000C62DF009F109F209F309F00A0319F10A87
:100B80000319F20A0319F30AA101A10AF71FC92DDB
:100B9000CA2DD92DF409F509F609F709F40A031944
:100BA000F50A0319F60A0319F70A0130FF007F0856
:100BB000A1060030A5000030A4000030A3000030E2
:100BC000A20073087204710470040319E82DE92D62
:100BD000362EA001A00AF92D0130F8000310F00D07
:100BE000F10DF20DF30DF80BEE2D0130FF007F0833
:100BF000A007F31FFC2DFD2DEC2D0130F800031094
:100C0000A20DA30DA40DA50DF80BFF2D73087702FF
:100C1000031D142E72087602031D142E710875022E
:100C2000031D142E70087402031C172E182E272E75
:100C30007008F4027108031C710FF5027208031C9E
:100C4000720FF6027308031C730FF70222140130AF
:100C50000310F30CF20CF10CF00CFF3E031D282ED8
:100C60000130A002031D352E362EFD2D210803195B
:100C70003A2E3B2E462EA209A309A409A509A20AD1
:100C80000319A30A0319A40A0319A50A2508F300E6
:100C90002408F2002308F1002208F0000800703058
:100CA000831603138F04003083120313A90000304E
:100CB000A8002530A7008030A6000030AD007A30B3
:100CC000AC001230AB000030AA000A128A1147258E
:100CD0000A128A11133083120313A000A0300A12E3
:100CE0008A11EE240A128A11A0300A128A114C24A9
:100CF0000A128A110A128A11B0230A128A110330C9
:100D0000FC0047300A128A11FD260A128A110A12C3
:100D10008A116D240A128A11063083120313BB0054
:100D20002F30BA00BA0B922EBB0B922E972E831641
:100D300003136A08E0006B08E1006C08E200E601BA
:100D4000E701E030F0000330F100E3300A128A11CD
:100D50002F240A128A1183160313E801E90183166E
:100D600003136608FF006808E33E84007F088313CE
:100D700080070130E8070318E90A0030E90769082D
:100D8000803AFF0080307F02031DC82E02306802C7
:100D9000031CCB2ECC2EAF2E033083120313A000E6
:100DA000E3300A128A1191240A128A110630831242
:100DB0000313BC001330BB00AD30BA00BA0BDE2EFB
:100DC000BB0BDE2EBC0BDE2E013083160313E607B1
:100DD0000318E70A0030E7076708803AFF00803011
:100DE0007F02031DF52E0A306602031CF82EF92E31
:100DF000A12E972E0A128A11002883120313A20033
:100E00008316031388110811063083120313A100FF
:100E10002F30A000A00B0A2FA10B0A2F0F2F831237
:100E2000031388150811063083120313A1002F3015
:100E3000A000A00B192FA10B192F1E2F0B3083120E
:100E40000313A3002330F800F901F90A00300A1255
:100E50008A11D4230A128A1183120313A3012330A7
:100E6000F800F901F90A01300A128A11D4230A1292
:100E70008A1183120313A301A30A2330F800F90196
:100E8000F90A02300A128A11D4230A128A11831233
:100E90000313A301A30A2330F800F901F90A033070
:100EA0000A128A11D4230A128A1183120313A3018E
:100EB0002330F800F901F90A04300A128A11D42308
:100EC0000A128A1183120313A301A30A2330F80024
:100ED000F901F90A05300A128A11D4230A128A117B
:100EE000263083120313A3002330F800F901F90A16
:100EF00006300A128A11D4230A128A117C0883123E
:100F00000313A3002330F800F901F90A11300A1283
:100F10008A11D4230A128A11831203132208F000C3
:100F2000F101F10A23300A128A112F240A128A11C0
:100F30002330F800F901F90A0A300A128A11D42381
:100F40000A128A11831203132208F000F101F10A38
:100F500023300A128A112F240A128A112330F80032
:100F6000F901F90A10300A128A11D4230A128A11DF
:100F70000A128A1116240A128A1108008316031312
:100F80000A128A11A8230A128A11EA000A128A1187
:100F9000A9230A128A11EB000A128A11AA230A1243
:100FA0008A11EC00831203130A128A11AB230A126E
:100FB0008A11C7000A128A11AC230A128A11C800CA
:100FC0000A128A11AD230A128A11C9000A128A1163
:100FD000AE230A128A11CA000A128A11AF230A121A
:100FE0008A11CB00BD01BE01BF01C001C101C20118
:100FF000C301C401C501C60183010A128A114F2E23
:04400E00F22CFF3F52
:00000001FF
