:020000040000FA
:100000000A128A11F02FFF1B0D2883137F18831704
:100010000008840A0319FF0A080000308A00040857
:10002000840A82070034253463342534633425344C
:100030006334253463342534633425346334253400
:100040006334253463340A3400344E3465347734F1
:040050000A3400343A
:100A08002230831203139400831603139401871270
:100A1800071687110800F00070088312031393006B
:100A280083160313141C192D1A2D142D0800F00019
:100A380083160313981C212D222D1C2D7008831258
:100A4800031399000800FA01FB014C2D7A08750779
:100A5800F8007608F7000318F70AFA1F342DF70391
:100A68007708F900790883120313FF0078088400D7
:100A78000A128A1103200A128A110A128A111B25E6
:100A88000A128A110130FA070318FB0A0030FB0723
:100A98007A087507F8007608F7000318F70AFA1FAE
:100AA800562DF7037708F900790883120313FF001E
:100AB800780884000A128A1103200A128A11003A5F
:100AC800031D672D682D2A2D0800831603130811AE
:100AD80088118312031388157030831603138F044B
:100AE800003083120313A9000030A8002530A700A6
:100AF8008030A6000030AD007A30AC001230AB0078
:100B08000030AA000A128A1153260A128A110A1200
:100B18008A1104250A128A110A128A11B0250A12AA
:100B28008A111330F5008030F6000A128A11272541
:100B38000A128A110B3083120313C4002630C30033
:100B48005D30C200C20BA62DC30BA62DC40BA62D6B
:100B5800902D0A128A11002883120313881100307D
:100B68000A128A110F250A128A110D30FC00FC0B9B
:100B7800BB2D4C3083120313930083160313141CEC
:100B8800C62DC72DC12D8312031313080A128A110B
:100B9800BE260A128A11F5000030F6000A128A11E0
:100BA80027250A128A118312031388151A30FD00AB
:100BB800F830FC00FC0BDE2DFD0BDE2D000083124F
:100BC8000313881120300A128A110F250A128A117C
:100BD8000D30FC00FC0BEE2D33300A128A110F2564
:100BE8000A128A118312031388150800F4002130B1
:100BF800F2003C2E253073060319032E042E0E2E08
:100C0800740884007308831380000130F0007008B2
:100C1800F4073C2E222E7208840083130008F30088
:100C28000230F0007008F207740884007308831318
:100C380080000130F0007008F4073C2E0130A00756
:100C4800FF30200784000A128A110D200A128A1127
:100C5800F300F000F1017108003A0319342E182E40
:100C68007008003A03194E2E633A03190F2E182EF6
:100C7800013083120313A007FF30200784000A12F3
:100C88008A110D200A128A11F3007308031D4D2ED4
:100C98004E2EFE2D740884008313800108008316ED
:100CA80003131815831203132608AE002708AF0094
:100CB8002808B0002908B10004300310AE0DAF0DAC
:100CC800B00DB10DFF3E031D612E3108F300300851
:100CD800F2002F08F1002E08F0002608B2002708BD
:100CE800B3002808B4002908B50004300310B20D79
:100CF800B30DB40DB50DFF3E031D7A2E2A08B600BC
:100D08002B08B7002C08B8002D08B9003208B60225
:100D18003308031C330F912E922EB7023408031C9C
:100D2800340F972E982EB8023508031C350F9D2EC8
:100D38009E2EB9023908F7003808F6003708F50082
:100D48003608F4000A128A1153270A128A11700809
:100D58008316031399001812831203139817831626
:100D68000313871707178312031318168316031321
:100D78009816080083120313C1004118C42EC52E0B
:100D8800CA2E3030B1000030B200CE2E3130B10062
:100D98000030B200C118D12ED22ED72E3030B30079
:100DA8000030B400DB2E3130B3000030B4004119FC
:100DB800DE2EDF2EE42E3030B5000030B600E82EEF
:100DC8003130B5000030B600C119EB2EEC2EF12EF3
:100DD8003030B7000030B800F52E3130B7000030A1
:100DE800B800411AF82EF92EFE2E3030B900003026
:100DF800BA00022F3130B9000030BA00C11A052FED
:100E0800062F0B2F3030BB000030BC000F2F3130C5
:100E1800BB000030BC00411B122F132F182F30309D
:100E2800BD000030BE001C2F3130BD000030BE00B8
:100E3800C11B1F2F202F252F3030BF000030C000CE
:100E4800292F3130BF000030C0000130A000400819
:100E5800A2003F08A1003E08A4003D08A3003C08EA
:100E6800A6003B08A5003A08A8003908A7003808DA
:100E7800AA003708A9003608AC003508AB003408CA
:100E8800AE003308AD003208B0003108AF0045307D
:100E98000A128A11FA250A128A11453008008312AB
:100EA8000313A101F31F592F5A2F672FF009F109D6
:100EB800F209F309F00A0319F10A0319F20A0319EE
:100EC800F30AA101A10AF71F6A2F6B2F7A2FF409E1
:100ED800F509F609F709F40A0319F50A0319F60AD8
:100EE8000319F70A0130F8007808A1060030A500B8
:100EF8000030A4000030A3000030A2007308720480
:100F0800710470040319892F8A2FD72FA001A00A12
:100F18009A2F0130F8000310F00DF10DF20DF30DCA
:100F2800F80B8F2F0130F8007808A007F31F9D2FCA
:100F38009E2F8D2F0130F8000310A20DA30DA40DD4
:100F4800A50DF80BA02F73087702031DB52F7208A3
:100F58007602031DB52F71087502031DB52F7008A1
:100F68007402031CB82FB92FC82F7008F402710837
:100F7800031C710FF5027208031C720FF602730846
:100F8800031C730FF702221401300310F30CF20C48
:100F9800F10CF00CFF3E031DC92F0130A002031D08
:100FA800D62FD72F9E2F21080319DB2FDC2FE72FF1
:100FB800A209A309A409A509A20A0319A30A0319E6
:100FC800A40A0319A50A2508F3002408F200230837
:100FD800F1002208F000080083120313C501C601BE
:100FE800C701C801C901CA01CB01CC01CD01CE019D
:080FF80083010A128A11692D20
:04400E00F22CFF3F52
:00000001FF
