:020000040000FA
:060000000A128A110E280D
:10000800FE00030EF0000A08F1007F08F2000A1251
:100018008A11FE2E0A128A1111280A128A11F4274F
:100028000A128A11EB000A128A11F5270A128A119C
:10003800EC000A128A11F6270A128A11ED00DC0177
:10004800DD01DE01DF01E001E101E201E301E4019C
:10005800E501E601E701E801E901EA01F901FA0130
:1000680083010A128A116E2D831203133108803915
:10007800BB003108B2003207C200B01F442845282F
:1000880046284214420803194A284B285B28420A8A
:10009800031D4F28502858280030B1000030B00008
:1000A8000030AF000030AE00B017B1016328003057
:1000B800B1000030B0000030AF000030AE002D08B5
:1000C8008039B2003208BB062D08B2003207C300DF
:1000D800AC1F6F287028712843144308031975282A
:1000E80076288628430A031D7A287B28832800302F
:1000F800AD000030AC000030AB000030AA00AC17F7
:10010800AD018E280030AD000030AC000030AB00EF
:100118000030AA002D082C042B042A04031D95285E
:100128009628AF280030B1000030B0000030AF0092
:100138000030AE008030B0047F30B1043B08B2001C
:100148003208B1043108AD003008AC002F08AB000C
:100158002E08AA000A2A4208031DB328B428BD287D
:100168000030AD000030AC000030AB000030AA0019
:100178000A2A4208B200B3013308B5004308320224
:10018800B400031CB50334087F3EBC0035080318CF
:10019800013E003EBD003108BA003008B9002F0802
:1001A800B8002E08B7000030B1000030B0000030B1
:1001B800AF000030AE000030C1000030C000003099
:1001C800BF000030BE00C301332943080319ED28DE
:1001D800EE280E290130B2000310B70DB80DB90D85
:1001E800BA0DB20BF0280130B2000310AE0DAF0DFE
:1001F800B00DB10DB20BF928C11F03290429052937
:100208002E140130B2000310BE0DBF0DC00DC10D7C
:10021800B20B07292D083A02031D1C292C083902A4
:10022800031D1C292B083802031D1C292A08370224
:10023800031C1F2920292F2941172A08B7022B0838
:10024800031C2B0FB8022C08031C2C0FB9022D0815
:10025800031C2D0FBA020130B2003208C3071A304E
:100268004302031C38293929E9283A083904380493
:10027800370403194029412960293E1460290130B7
:10028800B2000310AE0DAF0DB00DB10DB20B452984
:10029800C11F4F29502951292E140130B2000310D3
:1002A800BE0DBF0DC00DC10DB20B5329FF30BC07E9
:1002B8000318BD0AFF30BD07B01F6329642943290D
:1002C800C301C11F682969298529FF303E05B2008D
:1002D800FF303F05B300FF304005B4007F304105D3
:1002E800B500350834043304320403197C297D2908
:1002F8008029C301C30A85292E1C832984298529BD
:100308007D294308031989298A29BB290130AE07A9
:10031800003003180130AF07003003180130B00770
:10032800003003180130B107311C9B299C29BB29D7
:100338002E08B2002F08B3003008B4003108B50009
:100348000130B600350DB50CB40CB30CB20CB60BBD
:10035800A6293508B1003408B0003308AF003208C8
:10036800AE000130BC070318BD0A0030BD073D08C8
:10037800803AFF0080307F02031DC429FF303C0211
:10038800031CC729C829D629FF3083120313BC00D0
:100398000030BD000030B1000030B0000030AF00C8
:1003A8000030AE00831203133D08803AFF0080300E
:1003B8007F02031DE12901303C020318E429E529E5
:1003C800F22983120313BC01BD010030B1000030D3
:1003D800B0000030AF000030AE00BB018312031341
:1003E8003C08C200421CF929FA29FC29B017002A46
:1003F8007F30B2003208B0054208B2000310320C58
:10040800B1003B08B2003208B104A62808008312E4
:100418000313B9002930B200B62B25303A06031968
:10042800162A172A212A390884003A0883138000DB
:100438000130AF002F08B907B62BB701B801B601D4
:100448002A2A36150130AF002F08A807280884008B
:100458000A128A150A200A128A11AF00B001300860
:10046800003A0319382A3D2A2F08303A0319252A59
:100478003D2A280884000A128A150A200A128A11BD
:100488000A128A15EF250A128A11031C4C2A4D2AD2
:100498008D2A83120313B701B8010A30F300003024
:1004A800F400831203133808F6003708F5000A121F
:1004B8008A153D260A128A11740883120313B8009C
:1004C8007308B700280884000A128A150A200A123D
:1004D8008A11D03EAF00FF3003180030B0002F085B
:1004E800B7070318B80A3008B8070130AF002F085B
:1004F800A807280884000A128A150A200A128A11F5
:100508000A128A15EF250A128A1103188C2A8D2AD5
:10051800512A013083120313A807FF3028078400EB
:100528000A128A150A200A128A11BA00AF00B0010D
:100538003008003A0319A12AB62B2F08003A0319EC
:10054800C62B643A0319AC2A0D3A0319AC2AB62B08
:100558003208840083130008B400840A0008B50038
:100568000230AF002F08B207B51FBB2ABC2AC52A24
:100578000330AF002F08B604B409B509B40A03194B
:10058800B50ABA01BA0A3A08AF002F07013E84003B
:100598000A128A150A200A128A11B0000A128A154C
:1005A8000A200A128A11B10031083502031DDE2A19
:1005B800300834020318E12AE22AE32AED2A01303E
:1005C800AF002F08BA0705303A06031DEC2AED2ABA
:1005D800C72A370838040319F22AF32AFF2A3608EB
:1005E80003390319F82AF92AFF2AFF30B707031835
:1005F800B80AFF30B8073808803A803C031D062B3C
:1006080037083A020318092B0A2B162B83120313F7
:100618003A08AF00B0012F08B7023008031CB8032E
:10062800B8021A2B83120313B701B801361D1D2B0C
:100638001E2B492B360803390319232B242B2D2B6A
:10064800390884002D30831380000130AF002F0853
:10065800B907370838040319322B332B732B3908A1
:1006680084003030831380000130AF002F08B907B1
:10067800FF30B7070318B80AFF30B807370838043F
:10068800031D472B482B332B732B370838040319CA
:100698004E2B4F2B642B39088400203083138000A5
:1006A8000130AF002F08B907FF30B7070318B80AA1
:1006B800FF30B80737083804031D632B642B4F2B12
:1006C800360803390319692B6A2B732B3908840000
:1006D8002D30831380000130AF002F08B9073A0886
:1006E800B300AD2B0A30A3000030A4003308AF00DC
:1006F8002F07013E84000A128A150A200A128A115D
:10070800F3000A128A150A200A128A11F400350821
:10071800F6003408F5000A128A11AE270A128A1167
:10072800740883120313A6007308A5000A128A1519
:1007380091260A128A11831203132308303EBA0045
:10074800390884003A08831380000130AF002F086D
:10075800B907FF30AF002F08B307330A031DB52BC5
:10076800B62B762B0130A807FF30280784000A1221
:100778008A150A200A128A11BA003A08031DC52BE5
:10078800C62B112A390884008313800108008312BC
:1007980003136908803AFF0080307F02031DD62BBF
:1007A800013068020318D92BDA2BDF2B83120313CD
:1007B800CD01CE01E52B831203136908CE0068082A
:1007C800CD004E08803AFF0080307F02031DEE2BDB
:1007D8003D304D020318F12BF22B112C8312031319
:1007E8006908803AFF0080307F02031DFD2B01302D
:1007F80068020318002C012C062C83120313CF0166
:10080800D0010C2C831203136908D0006808CF00AC
:100818005008E9004F08E800172C3C3083120313F6
:10082800E8000030E9006708803AFF0080307F0266
:10083800031D202C013066020318232C242C292C9C
:1008480083120313D101D2012F2C831203136708DB
:10085800D2006608D1005208803AFF0080307F023B
:10086800031D382C3D30510203183B2C3C2C5B2CCB
:10087800831203136708803AFF0080307F02031D4C
:10088800472C0130660203184A2C4B2C502C83123B
:100898000313D301D401562C831203136708D40021
:1008A8006608D3005408E7005308E600612C3C3082
:1008B80083120313E6000030E7006508803AFF0062
:1008C80080307F02031D6A2C0130640203186D2CEE
:1008D8006E2C732C83120313D501D601792C831245
:1008E80003136508D6006408D5005608803AFF004F
:1008F80080307F02031D822C193055020318852C85
:10090800862CA52C831203136508803AFF008030DB
:100918007F02031D912C013064020318942C952C3E
:100928009A2C83120313D701D801A02C8312031326
:100938006508D8006408D7005808E5005708E4009F
:10094800AB2C183083120313E4000030E5000B30A1
:10095800A8006508AA006408A9006708AC00660832
:10096800AB006908AE006808AD0044300A128A116D
:100978000B220A128A110B3083120313A800610894
:10098800AA006008A9006308AC006208AB006C0804
:10099800AE006B08AD003B300A128A110B220A1216
:1009A8008A1100300A128A1501260A128A110130AA
:1009B8000A128A1501260A128A1108300A128A15A3
:1009C80001260A128A1100300A128A1501260A1213
:1009D8008A111E30F6008030F7000A128A15CD26DB
:1009E8000A128A1108300A128A1501260A128A1177
:1009F80004300A128A1501260A128A114430F600B8
:100A08000030F7000A128A15CD260A128A110C3016
:100A18000A128A1501260A128A1100300A128A154A
:100A280001260A128A111A30F6008030F7000A12DD
:100A38008A15CD260A128A110C300A128A15012647
:100A48000A128A1104300A128A1501260A128A111A
:100A58003B30F6000030F7000A128A15CD260A123C
:100A68008A11831203136A03031D3B2D3C2D512D5C
:100A780008300A128A1501260A128A110F300A1242
:100A88008A1501260A128A112230F6008030F700F2
:100A98000A128A15CD260A128A11831203136D03CE
:100AA800031D572D582D6D2D0C300A128A1501265D
:100AB8000A128A110F300A128A1501260A128A119F
:100AC8002430F6008030F7000A128A15CD260A1263
:100AD8008A1108008430831603138100E0308B00EC
:100AE800B23083120313810083160313880189012E
:100AF80007309C004E309F000A128A1513270A12ED
:100B08008A11F330831603138600103083120313FF
:100B1800900083160313870183120313871C952DF6
:100B2800962DA02D871C992D9A2D2A2E5C085D04E0
:100B3800031D9F2DA02D2A2E6A080319A42DA52D6B
:100B4800272E8F018E018615073083120313D900D3
:100B5800D90BAC2D0000831203138611061EB52D88
:100B6800B62DB22D1014061ABA2DBB2DB72D1010A4
:100B78000F08DB000E08DA005A08F3005B08F400DF
:100B88000030F41BFF30F500F60001300A128A111C
:100B980044260A128A11760883120313B1007508D5
:100BA800B0007408AF007308AE004230AD006B307F
:100BB800AC004730AB00AE30AA000A128A113820C8
:100BC8000A128A11831203132D08C7002C08C600C5
:100BD8002B08C5002A08C4000A128A1588270A1299
:100BE8008A11831203134508DB004408DA005A0807
:100BF800013EDA005B080318013E003EDB005B089B
:100C0800803AFF0080307F02031D0C2E02305A020A
:100C1800031C0F2E102E272E831203135B08803A15
:100C2800FF0081307F02031D1B2E2D305A0203184E
:100C38001E2E1F2E272EE83083120313DC000330EC
:100C4800DD0087142A2E8312031387105F08803A69
:100C5800FF0083307F02031D332EE8305E02031C41
:100C6800362E372E902D83120313DE01DF010A1270
:100C78008A11CB230A128A11902D0A128A110E2882
:100C880083120313A400240803194B2E4C2E602E44
:100C9800F61F4F2E502E602E7309A6007409A70068
:100CA8007509A8007609A900A60A0319A70A031955
:100CB800A80A0319A90A682E7608A9007508A800C9
:100CC8007408A7007308A6007608750474047304F2
:100CD800031D6F2E702E792E0030F6000030F500BF
:100CE8000030F4000030F300FD2E9630A500892E68
:100CF8000130A0002008A50701300310A90CA80C9A
:100D0800A70CA60CFF3E031D812EFE302905031DEE
:100D18008E2E8F2E7C2EAB2E0130A0002008A5072A
:100D28000130A607003003180130A7070030031868
:100D38000130A807003003180130A907013003105B
:100D4800A90CA80CA70CA60CFF3E031DA32EFF3070
:100D58002905031DB02EB12E902EBD2E0130A502FF
:100D68000130A0000310A60DA70DA80DA90DA00B1A
:100D7800B62EA81BC02EC12EC72E0230250203187E
:100D8800C62EC72EB22E2518CA2ECB2ED32EFF3034
:100D9800A605FF30A7057F30A805FF30A905031079
:100DA800A50C2508A000A101A201A3011830031079
:100DB800A00DA10DA20DA30DFF3E031DDB2E2008E3
:100DC800A6042108A7042208A8042308A9042408C3
:100DD8000319EF2EF02EF52EF61FF32EF42EF52E16
:100DE800A9172908F6002808F5002708F40026089E
:100DF800F30008000B1D012F022FA52F0130F90762
:100E08000318FA0A0030FA07013083120313DE07C9
:100E18000318DF0A0030DF077A08803AFF008330C2
:100E28007F02031D192FE8307902031C1C2F1D2F88
:100E38008E2FF901FA01013083120313E807031812
:100E4800E90A0030E9076908803AFF0080307F022C
:100E5800031D302F3C306802031C332F342F662FBC
:100E680083120313E801E9010130E6070318E70AD2
:100E78000030E7076708803AFF0080307F02031DD3
:100E8800472F3C306602031C4A2F4B2F662F8312D4
:100E98000313E601E7010130E4070318E50A00300F
:100EA800E5076508803AFF0080307F02031D5E2F4A
:100EB80018306402031C612F622F662F83120313FC
:100EC800E401E5018312031369086C06031D6E2F04
:100ED80068086B06031D712F722F8E2F6708630633
:100EE800031D782F66086206031D7B2F7C2F8E2F2B
:100EF80065086106031D822F64086006031D852F9F
:100F0800862F8E2F6D03031D8A2F8B2F8E2FEA01BC
:100F1800EA0A0615831203135C085D040319952F6A
:100F2800962F9C2FFF30DC070318DD0AFF30DD0702
:100F3800861E9F2FA02FA22FEA0106110B11B23097
:100F480081007208FF0071088A00700E8300FE0E8F
:100F58007E0E090083120313A101A2017308740411
:100F68000319B72FB82FEF2FA001A00AC62F013001
:100F78000310F30DF40DFF3E031DBC2F0130F700E5
:100F88007708A007F41FC92FCA2FBB2F0130031001
:100F9800A10DA20DFF3E031DCB2F74087602031D81
:100FA800D72F73087502031CDA2FDB2FE22F730883
:100FB800F5027408031CF603F6022114013003102D
:100FC800F40CF30CFF3E031DE32F0130A002031DB8
:100FD800EE2FEF2FCA2F2208F4002108F300080093
:060FE8000F340034013457
:10100000FF1B0A2883137F1883170008840A03191B
:10101000FF0A080008308A000408840A82070034A6
:10102000013400340A34003464340034E8340334C6
:101030001034273425343034323464343A3425348F
:101040003034323464343A34253430343234643415
:10105000003461346C343A3400346B346C343A34D8
:0A1060000034213400344134003420
:101BDE00F400F3013A3074020318F62DF72DFF2DA1
:101BEE0030307402031CFC2DFD2DFF2DF301F30A82
:101BFE00730C0800F60083120313891076080A127C
:101C0E008A151B260A128A158312031309140D3026
:101C1E00F500FB30F400F40B122EF50B122E172EDE
:101C2E008312031309100800F300731C1F2E202EBD
:101C3E00242E831203130816272E83120313081261
:101C4E00F31C2A2E2B2E2D2E88162E2E8812731D47
:101C5E00312E322E342E0817352E0813F31D382E42
:101C6E00392E3B2E88173C2E88130800F701F801F9
:101C7E00731C422E432E492E7508F7070318F80AD7
:101C8E007608F80701300310F50DF60DFF3E031D23
:101C9E004A2E01300310F40CF30CFF3E031D512E9F
:101CAE0073087404031D5C2E5D2E3F2E7808F4001D
:101CBE007708F3000800F5008312031389147508E2
:101CCE00F40004300310F40CFF3E031D692E74085B
:101CDE000F390A128A151B260A128A15831203134C
:101CEE0009142130F400F40B7A2E83120313091019
:101CFE0075080F390A128A151B260A128A158312C5
:101D0E00031309142130F400F40B8B2E83120313EA
:101D1E000910080083120313230824040319982EB4
:101D2E00992EC82EA701A70AA72E01300310A30DC6
:101D3E00A40DFF3E031D9D2E0130F8007808A70765
:101D4E00A41FAA2EAB2E9C2E24082602031DB12EF4
:101D5E0023082502031CB42EB52EBB2E2308A50284
:101D6E002408031CA603A60201300310A40CA30C26
:101D7E00FF3E031DBC2E0130A702031DC72EC82E29
:101D8E00AB2E2608A4002508A30008008312031317
:101D9E00A301A401F62E23087607A1007708A00060
:101DAE000318A00AA31FDC2EA0038312031320081E
:101DBE00A2002208FF00210884000A128A150020C2
:101DCE000A128A150A128A1562260A128A1501301B
:101DDE0083120313A3070318A40A0030A4072308D1
:101DEE007607A1007708A0000318A00AA31F002FF2
:101DFE00A003831203132008A2002208FF0021086B
:101E0E0084000A128A1500200A128A15003A031D50
:101E1E00112F122FD22E08004130F800EE30F700AD
:101E2E00F70B172FF80B172F000003300A128A1525
:101E3E0001260A128A151130F8003A30F700F70B16
:101E4E00262FF80B262F000003300A128A150126C2
:101E5E000A128A153430F800F130F700F70B352FDF
:101E6E00F80B352F3A2F03300A128A1501260A1263
:101E7E008A1502300A128A1501260A128A150230B4
:101E8E000A128A1501260A128A1508300A128A15B4
:101E9E0001260A128A1500300A128A1501260A1224
:101EAE008A1506300A128A1501260A128A1508307A
:101EBE0083120313A00020152008F700043003102E
:101ECE00F70CFF3E031D662F77080F390A128A158D
:101EDE0001260A128A158312031320080F390A12DB
:101EEE008A1501260A128A1500300A128A15012651
:101EFE000A128A1501300A128A1501260A128A154B
:101F0E000800031083120313460D470DF8007808DE
:101F1E00031D922F932F9C2F0030C7000030C60058
:101F2E000030C5000030C400FF2F4408C80045082B
:101F3E00C9004608CA004708CB001F300310CB0C5F
:101F4E00CA0CC90CC80CFF3E031DA52F4808F7008C
:101F5E00C617FF30C405FF30C505FF30C60500307B
:101F6E00C7059630F802F81FBD2FBE2FD82F780860
:101F7E00803A973E0318C42FC52FC62F932F0130DA
:101F8E000310C70CC60CC50CC40CFF3E031DC72F97
:101F9E000130C8004808F807031DD62FD72FC62FCB
:101FAE00EF2F20307802031CDD2FDE2FEA2F932F28
:101FBE000130C8000310C40DC50DC60DC70DC80BEA
:101FCE00E12F0130F8027808031DEE2FEF2FDF2FDF
:101FDE0077080319F32FF42FFF2FC409C509C6097B
:101FEE00C709C40A0319C50A0319C60A0319C70A81
:021FFE000800D9
:02400E003A3F37
:00000001FF
