:020000040000FA
:060000000A128A110E280D
:10000800FE00030EF0000A08F1007F08F2000A1251
:100018008A15072D0A128A1111280A128A155422E4
:100028000A128A11EB000A128A1555220A128A113D
:10003800EC000A128A1556220A128A11ED000A12D9
:100048008A1557220A128A11EE000A128A155822B6
:100058000A128A11EF008313A0308400E0300A12DC
:100068008A1559220A128A11543084006B300A12F8
:100078008A1559220A128A11F901FA0183010A1212
:100088008A11832E8312031367086E06031D4E28F8
:1000980066086D06031D512852286F2865086106F9
:1000A800031D582864086006031D5B285C286F2818
:1000B80063085F06031D622862085E06031D652843
:1000C80066286F286F03031D6A286B286F28033082
:1000D800DC000030DD006708803AFF0080307F02D6
:1000E800031D78280130660203187B287C288128A4
:1000F80083120313BB01BC0187288312031367080B
:10010800BC006608BB003C08803AFF0080307F02D4
:10011800031D90283D303B02031893289428B328E8
:10012800831203136708803AFF0080307F02031DA3
:100138009F28013066020318A228A328A828831242
:100148000313BD01BE01AE28831203136708BE0066
:100158006608BD003E08E7003D08E600B9283C30C7
:1001680083120313E6000030E7006508803AFF00B9
:1001780080307F02031DC228013064020318C5289D
:10018800C628CB2883120313BF01C001D1288312CC
:1001980003136508C0006408BF004008803AFF00E8
:1001A80080307F02031DDA283D303F020318DD2826
:1001B800DE28FD28831203136508803AFF0080308B
:1001C8007F02031DE928013064020318EC28ED289A
:1001D800F22883120313C101C201F8288312031302
:1001E8006508C2006408C1004208E5004108E4004F
:1001F80003293C3083120313E4000030E500630850
:10020800803AFF0080307F02031D0C290130620212
:1002180003180F291029152983120313C301C401D8
:100228001B29831203136308C4006208C30044082F
:10023800803AFF0080307F02031D242919304302D1
:100248000318272928294729831203136308803AAA
:10025800FF0080307F02031D33290130620203183A
:10026800362937293C2983120313C501C6014229BF
:10027800831203136308C6006208C5004608E3003A
:100288004508E2004D29183083120313E2000030BC
:10029800E3006E08803AFF0080307F02031D562974
:1002A80001306D02031859295A295F298312031353
:1002B800C701C8016529831203136E08C8006D08B9
:1002C800C7004808803AFF0080307F02031D6E296E
:1002D8003D304702031871297229912983120313AB
:1002E8006E08803AFF0080307F02031D7D290130AF
:1002F8006D02031880298129862983120313C901F5
:10030800CA018C29831203136E08CA006D08C9003C
:100318004A08EE004908ED0097293C308312031380
:10032800ED000030EE006108803AFF0080307F0267
:10033800031DA029013060020318A329A429A929B3
:1003480083120313CB01CC01AF2983120313610875
:10035800CC006008CB004C08803AFF0080307F0258
:10036800031DB8293D304B020318BB29BC29DB29E2
:10037800831203136108803AFF0080307F02031D57
:10038800C729013060020318CA29CB29D029831252
:100398000313CD01CE01D629831203136108CE00C1
:1003A8006008CD004E08E1004D08E000E1293C302E
:1003B80083120313E0000030E1005F08803AFF0079
:1003C80080307F02031DEA2901305E020318ED29FF
:1003D800EE29F32983120313CF01D001F9298312DF
:1003E80003135F08D0005E08CF005008803AFF0072
:1003F80080307F02031D022A19304F020318052A94
:10040800062A252A831203135F08803AFF008030EA
:100418007F02031D112A01305E020318142A152ACF
:100428001A2A83120313D101D201202A831203133B
:100438005F08D2005E08D1005208DF005108DE00D4
:100448002B2A183083120313DE000030DF0000303F
:100458000A128A1573220A128A1101300A128A15A1
:1004680073220A128A1108300A128A1573220A1294
:100478008A1100300A128A1573220A128A111E3054
:10048800F6008030F7000A128A153F230A128A11F3
:1004980008300A128A1573220A128A1104300A12C5
:1004A8008A1573220A128A110B3083120313A800CB
:1004B8006308AA006208A9006508AC006408AB00DC
:1004C8006708AE006608AD00A0300A128A11C3247E
:1004D8000A128A11A030F6000030F7000A128A15B5
:1004E8003F230A128A110C300A128A1573220A1243
:1004F8008A1100300A128A1573220A128A111A30D8
:10050800F6008030F7000A128A153F230A128A1172
:100518000C300A128A1573220A128A1104300A1240
:100528008A1573220A128A110B3083120313A8004A
:100538005F08AA005E08A9006108AC006008AB006B
:100548006E08AE006D08AD00C0300A128A11C324CF
:100558000A128A11C030F6000030F7000A128A1514
:100568003F230A128A11831203136A03031DBD2A4B
:10057800BE2AD32A08300A128A1573220A128A114F
:100588000F300A128A1573220A128A112230F600D5
:100598008030F7000A128A153F230A128A11831243
:1005A80003136F03031DD92ADA2AEF2A0C300A1223
:1005B8008A1573220A128A110F300A128A157322B9
:1005C8000A128A112430F6008030F7000A128A15C0
:1005D8003F230A128A110800831203133108803955
:1005E800BB003108B2003207C200B01FFC2AFD2A46
:1005F800FE2A421442080319022B032B132B420A2A
:10060800031D072B082B102B0030B1000030B00061
:100618000030AF000030AE00B017B1011B2B003026
:10062800B1000030B0000030AF000030AE002D083F
:100638008039B2003208BB062D08B2003207C30069
:10064800AC1F272B282B292B4314430803192D2BC8
:100658002E2B3E2B430A031D322B332B3B2B003012
:10066800AD000030AC000030AB000030AA00AC1781
:10067800AD01462B0030AD000030AC000030AB00BF
:100688000030AA002D082C042B042A04031D4D2B2E
:100698004E2B672B0030B1000030B0000030AF00A7
:1006A8000030AE008030B0047F30B1043B08B200A7
:1006B8003208B1043108AD003008AC002F08AB0097
:1006C8002E08AA00C22C4208031D6B2B6C2B752B1D
:1006D8000030AD000030AC000030AB000030AA00A4
:1006E800C22C4208B200B3013308B50043083202F5
:1006F800B400031CB50334087F3EBC00350803185A
:10070800013E003EBD003108BA003008B9002F088C
:10071800B8002E08B7000030B1000030B00000303B
:10072800AF000030AE000030C1000030C000003023
:10073800BF000030BE00C301EB2B43080319A52BF3
:10074800A62BC62B0130B2000310B70DB80DB90D9A
:10075800BA0DB20BA82B0130B2000310AE0DAF0DCD
:10076800B00DB10DB20BB12BC11FBB2BBC2BBD2BD8
:100778002E140130B2000310BE0DBF0DC00DC10D07
:10078800B20BBF2B2D083A02031DD42B2C083902BB
:10079800031DD42B2B083802031DD42B2A0837023B
:1007A800031CD72BD82BE72B41172A08B7022B0895
:1007B800031C2B0FB8022C08031C2C0FB9022D08A0
:1007C800031C2D0FBA020130B2003208C3071A30D9
:1007D8004302031CF02BF12BA12B3A0839043804EF
:1007E80037040319F82BF92B182C3E14182C013058
:1007F800B2000310AE0DAF0DB00DB10DB20BFD2B55
:10080800C11F072C082C092C2E140130B20003102C
:10081800BE0DBF0DC00DC10DB20B0B2CFF30BC07B8
:100828000318BD0AFF30BD07B01F1B2C1C2CFB2B67
:10083800C301C11F202C212C3D2CFF303E05B200E6
:10084800FF303F05B300FF304005B4007F3041055D
:10085800B50035083404330432040319342C352C1C
:10086800382CC301C30A3D2C2E1C3B2C3C2C3D2CA0
:10087800352C43080319412C422C732C0130AE0748
:10088800003003180130AF07003003180130B007FB
:10089800003003180130B107311C532C542C732C31
:1008A8002E08B2002F08B3003008B4003108B50094
:1008B8000130B600350DB50CB40CB30CB20CB60B48
:1008C8005E2C3508B1003408B0003308AF00320898
:1008D800AE000130BC070318BD0A0030BD073D0853
:1008E800803AFF0080307F02031D7C2CFF303C02E1
:1008F800031C7F2C802C8E2CFF3083120313BC002A
:100908000030BD000030B1000030B0000030AF0052
:100918000030AE00831203133D08803AFF00803098
:100928007F02031D992C01303C0203189C2C9D2C3E
:10093800AA2C83120313BC01BD010030B1000030A2
:10094800B0000030AF000030AE00BB0183120313CB
:100958003C08C200421CB12CB22CB42CB017B82CE5
:100968007F30B2003208B0054208B2000310320CE2
:10097800B1003B08B2003208B1045E2B08008312B4
:100988000313B9002930B2006E2E25303A06031938
:10099800CE2CCF2CD92C390884003A088313800038
:1009A8000130AF002F08B9076E2EB701B801B601A4
:1009B800E22C36150130AF002F08A807280884005C
:1009C8000A128A150A200A128A11AF00B0013008EB
:1009D800003A0319F02CF52C2F08303A0319DD2CB6
:1009E800F52C280884000A128A150A200A128A118E
:1009F8000A128A1561220A128A11031C042D052D78
:100A0800452D83120313B701B8010A30F3000030F3
:100A1800F400831203133808F6003708F5000A12A9
:100A28008A15AF220A128A11740883120313B800B8
:100A38007308B700280884000A128A150A200A12C7
:100A48008A11D03EAF00FF3003180030B0002F08E5
:100A5800B7070318B80A3008B8070130AF002F08E5
:100A6800A807280884000A128A150A200A128A117F
:100A78000A128A1561220A128A110318442D452D7B
:100A8800092D013083120313A807FF3028078400BB
:100A98000A128A150A200A128A11BA00AF00B00198
:100AA8003008003A0319592D6E2E2F08003A031901
:100AB8007E2E643A0319642D0D3A0319642D6E2EA7
:100AC8003208840083130008B400840A0008B500C3
:100AD8000230AF002F08B207B51F732D742D7D2D7E
:100AE8000330AF002F08B604B409B509B40A0319D6
:100AF800B50ABA01BA0A3A08AF002F07013E8400C6
:100B08000A128A150A200A128A11B0000A128A15D6
:100B18000A200A128A11B10031083502031D962DE8
:100B2800300834020318992D9A2D9B2DA52D0130DC
:100B3800AF002F08BA0705303A06031DA42DA52DCE
:100B48007F2D370838040319AA2DAB2DB72D360889
:100B580003390319B02DB12DB72DFF30B70703188E
:100B6800B80AFF30B8073808803A803C031DBE2D0C
:100B780037083A020318C12DC22DCE2D8312031354
:100B88003A08AF00B0012F08B7023008031CB803B9
:100B9800B802D22D83120313B701B801361DD52D23
:100BA800D62D012E360803390319DB2DDC2DE52D52
:100BB800390884002D30831380000130AF002F08DE
:100BC800B907370838040319EA2DEB2D2B2E3908FD
:100BD80084003030831380000130AF002F08B9073C
:100BE800FF30B7070318B80AFF30B80737083804CA
:100BF800031DFF2D002EEB2D2B2E3708380403196B
:100C0800062E072E1C2E39088400203083138000FE
:100C18000130AF002F08B907FF30B7070318B80A2B
:100C2800FF30B80737083804031D1B2E1C2E072E6B
:100C3800360803390319212E222E2B2E3908840059
:100C48002D30831380000130AF002F08B9073A0810
:100C5800B300652E0A30A3000030A4003308AF00AB
:100C68002F07013E84000A128A150A200A128A11E7
:100C7800F3000A128A150A200A128A11F4003508AC
:100C8800F6003408F5000A128A1585230A128A111B
:100C9800740883120313A6007308A5000A128A15A4
:100CA80003230A128A11831203132308303EBA0061
:100CB800390884003A08831380000130AF002F08F8
:100CC800B907FF30AF002F08B307330A031D6D2E95
:100CD8006E2E2E2E0130A807FF30280784000A1236
:100CE8008A150A200A128A11BA003A08031D7D2EB5
:100CF8007E2EC92C390884008313800108000A124B
:100D08008A11EF270A128A118316031388018901B1
:100D180007309C004E309F000A128A151A240A12C6
:100D28008A11F730831603138600103083120313D9
:100D38009000831603138701831203135C085D0474
:100D4800031DA72EA82E032F0618AB2EAD2E01309B
:100D5800AE2E0030D3005A085B040319B42EB62E09
:100D68000130B72E0030530500380319BC2EBD2EB4
:100D7800C52E0130DC000030DD00F430DA0001302F
:100D8800DB008618C82ECA2E0130CB2E0030D300C7
:100D98005A085B040319D12ED32E0130D42E00300B
:100DA800530500380319D92EDA2EE22E0230DC0062
:100DB8000030DD00F430DA000130DB000619E52EE2
:100DC800E72E0130E82E0030D3005A085B040319DF
:100DD800EE2EF02E0130F12E0030530500380319A5
:100DE800F62EF72E032FF430DA000130DB006F08FF
:100DF8000319FF2E012F0130022F0030EF005C0392
:100E08005D04031D082F092F0E2F0A128A1550267C
:100E18000A128A110230831203135C065D04031D53
:100E2800162F172F1C2F0A128A1528270A128A1123
:100E38000330831203135C065D04031D242F252F42
:100E48002A2F0A128A15CB230A128A118312031336
:100E58006A080319302F312FD32F54085504031D66
:100E6800362F372FD32F8F018E0186150730831227
:100E78000313D300D30B3E2F0000831203138611F4
:100E8800061E472F482F442F1014061A4C2F4D2F9B
:100E9800492F10100F0883160313E1008312031360
:100EA8000E0883160313E0006008F3006108F400DD
:100EB8000030F41BFF30F500F60001300A128A15E5
:100EC80096250A128A11760883120313B100750851
:100ED800B0007408AF007308AE004230AD006B304C
:100EE800AC004730AB00AE30AA000A128A11F022DB
:100EF8000A128A11831203132D08C7002C08C60092
:100F08002B08C5002A08C4000A128A158F240A1261
:100F18008A1183120313450883160313E100831211
:100F28000313440883160313E0006008013EE00041
:100F380061080318013E003EE1006108803AFF00A5
:100F480080307F02031DAA2F02306002031CAD2FE0
:100F5800AE2FD32F831603136108803AFF00813028
:100F68007F02031DB92F913060020318BC2FBD2FDB
:100F7800D32F831603136108803AFF0080307F0265
:100F8800031DC82FC83060020318CB2FCC2FD02FD9
:100F9800831203138714D32F83120313871083122A
:100FA80003135708803AFF0083307F02031DDE2FAA
:100FB800E8305602031CE12FE22FA02E8312031300
:100FC800D601D7010A128A1146200A128A11A02EC8
:100FD8000A128A110E288430831603138100E03028
:100FE8008B00B230831203138100FF308316031382
:040FF8008600080067
:10100000FF1B0A2883137F1883170008840A03191B
:10101000FF0A080008308A000408840A82070034A6
:10102000013400340A34003464340034E8340334C6
:101030001034273425343034323464343A3425348F
:101040003034323464343A34253430343234643415
:10105000003461346C343A3400346B346C343A34D8
:0A1060000034213400344134003420
:1014A8000134003405340034013464008001840AB6
:1014B80004060319003404065A2AF400F3013A30EA
:1014C80074020318682A692A712A30307402031CCE
:1014D8006E2A6F2A712AF301F30A730C0800F600CA
:1014E80083120313891076080A128A158D220A12AC
:1014F8008A158312031309140D30F500FB30F4002C
:10150800F40B842AF50B842A892A83120313091001
:101518000800F300731C912A922A962A8312031357
:101528000816992A831203130812F31C9C2A9D2A71
:101538009F2A8816A02A8812731DA32AA42AA62ADD
:101548000817A72A0813F31DAA2AAB2AAD2A881759
:10155800AE2A88130800F701F801731CB42AB52ACB
:10156800BB2A7508F7070318F80A7608F807013048
:101578000310F50DF60DFF3E031DBC2A01300310C4
:10158800F40CF30CFF3E031DC32A73087404031DF7
:10159800CE2ACF2AB12A7808F4007708F300080089
:1015A800F5008312031389147508F400043003103E
:1015B800F40CFF3E031DDB2A74080F390A128A1542
:1015C8008D220A128A158312031309142130F4009C
:1015D800F40BEC2A83120313091075080F390A1249
:1015E8008A158D220A128A158312031309142130D1
:1015F800F400F40BFD2A8312031309100800831268
:1016080003132308240403190A2B0B2B3A2BA701D5
:10161800A70A192B01300310A30DA40DFF3E031DCB
:101628000F2B0130F8007808A707A41F1C2B1D2BCF
:101638000E2B24082602031D232B23082502031C36
:10164800262B272B2D2B2308A5022408031CA603D1
:10165800A60201300310A40CA30CFF3E031D2E2B81
:101668000130A702031D392B3A2B1D2B2608A40095
:101678002508A300080083120313A301A401682B03
:1016880023087607A1007708A0000318A00AA31F63
:101698004E2BA003831203132008A2002208FF0088
:1016A800210884000A128A1500200A128A150A12D3
:1016B8008A15D4220A128A15013083120313A3074C
:1016C8000318A40A0030A40723087607A1007708A6
:1016D800A0000318A00AA31F722BA00383120313F0
:1016E8002008A2002208FF00210884000A128A1597
:1016F80000200A128A15003A031D832B842B442BE1
:10170800080083120313A101A201730874040319CA
:101718008E2B8F2BC62BA001A00A9D2B0130031006
:10172800F30DF40DFF3E031D932B0130F7007708EE
:10173800A007F41FA02BA12B922B01300310A10DA1
:10174800A20DFF3E031DA22B74087602031DAE2BCB
:1017580073087502031CB12BB22BB92B7308F50261
:101768007408031CF603F602211401300310F40C6C
:10177800F30CFF3E031DBA2B0130A002031DC52B3D
:10178800C62BA12B2208F4002108F30008008312BD
:101798000313EA01EA0A79087A04031DD42BD52B2E
:1017A800DB2B083087060130F9000030FA000618F4
:1017B800DE2BE02B0130E12B0030F3005A085B04EC
:1017C8000319E72BE92B0130EA2B003073050038A9
:1017D8000319EF2BF02BFE2BF430DA000130DB007D
:1017E8006D081E3EED006E080318013E003EEE0037
:1017F800DC01DD018618012C032C0130042C00309B
:10180800F3005A085B0403190A2C0C2C01300D2C28
:101818000030730500380319122C132C192CF430DE
:10182800DA000130DB00DC01DD0108004130F8009E
:10183800EE30F700F70B1E2CF80B1E2C00000330BF
:101848000A128A1573220A128A151130F8003A30E2
:10185800F700F70B2D2CF80B2D2C000003300A1283
:101868008A1573220A128A153430F800F130F7000D
:10187800F70B3C2CF80B3C2C412C03300A128A1530
:1018880073220A128A1502300A128A1573220A1262
:101898008A1502300A128A1573220A128A1508302C
:1018A8000A128A1573220A128A1500300A128A153A
:1018B80073220A128A1506300A128A1573220A122E
:1018C8008A15083083120313A00020152008F7009A
:1018D80004300310F70CFF3E031D6D2C77080F39F9
:1018E8000A128A1573220A128A1583120313200812
:1018F8000F390A128A1573220A128A1500300A1241
:101908008A1573220A128A1501300A128A1573225F
:101918000A128A150800031083120313460D470D97
:10192800F8007808031D992C9A2CA32C0030C700C6
:101938000030C6000030C5000030C400062D440841
:10194800C8004508C9004608CA004708CB001F3030
:101958000310CB0CCA0CC90CC80CFF3E031DAC2CE1
:101968004808F700C617FF30C405FF30C505FF302B
:10197800C6050030C7059630F802F81FC42CC52CE0
:10198800DF2C7808803A973E0318CB2CCC2CCD2C32
:101998009A2C01300310C70CC60CC50CC40CFF3EB2
:1019A800031DCE2C0130C8004808F807031DDD2CA4
:1019B800DE2CCD2CF62C20307802031CE42CE52CF0
:1019C800F12C9A2C0130C8000310C40DC50DC60DAA
:1019D800C70DC80BE82C0130F8027808031DF52C58
:1019E800F62CE62C77080319FA2CFB2C062DC409D3
:1019F800C509C609C709C40A0319C50A0319C60ACD
:101A08000319C70A08000B1D0A2D0B2D8D2D013057
:101A180083120313E8070318E90A0030E9070130C5
:101A2800D6070318D70A0030D7076908803AFF009D
:101A380083307F02031D222DE8306802031C252D08
:101A4800262D582D013083120313E6070318E70AE1
:101A58000030E707E801E9013C3066066704031D2A
:101A6800362D372D582DE601E7010130E40703181C
:101A7800E50A0030E5073C3064066504031D452D82
:101A8800462D582D0130E2070318E30A0030E3071A
:101A9800E401E501183062066304031D542D552D39
:101AA800582DE201E301582D831203135A085B04F1
:101AB80003195F2D602D662DFF30DA070318DB0A46
:101AC800FF30DB0779087A0403196B2D6C2D722D12
:101AD800FF30F9070318FA0AFF30FA0758085904C3
:101AE8000319772D782D7E2DFF30D8070318D90AD2
:101AF800FF30D907540855040319832D842D8A2DE6
:101B0800FF30D4070318D50AFF30D5070B11B230C0
:101B180081007208FF0071088A00700E8300FE0EB3
:101B28007E0E090083120313A400240803199D2DB7
:101B38009E2DB22DF61FA12DA22DB22D7309A60040
:101B48007409A7007509A8007609A900A60A03194F
:101B5800A70A0319A80A0319A90ABA2D7608A90021
:101B68007508A8007408A7007308A600760875040D
:101B780074047304031DC12DC22DCB2D0030F60053
:101B88000030F5000030F4000030F3004F2E96309E
:101B9800A500DB2D0130A0002008A50701300310A7
:101BA800A90CA80CA70CA60CFF3E031DD32DFE30D4
:101BB8002905031DE02DE12DCE2DFD2D0130A000BE
:101BC8002008A5070130A607003003180130A70731
:101BD800003003180130A807003003180130A907A6
:101BE80001300310A90CA80CA70CA60CFF3E031D7E
:101BF800F52DFF302905031D022E032EE22D0F2E91
:101C08000130A5020130A0000310A60DA70DA80DF4
:101C1800A90DA00B082EA81B122E132E192E023068
:101C280025020318182E192E042E25181C2E1D2ED9
:101C3800252EFF30A605FF30A7057F30A805FF3009
:101C4800A9050310A50C2508A000A101A201A30164
:101C580018300310A00DA10DA20DA30DFF3E031D0A
:101C68002D2E2008A6042108A7042208A80423086A
:101C7800A90424080319412E422E472EF61F452E8B
:101C8800462E472EA9172908F6002808F500270828
:101C9800F4002608F300080083120313861B552E50
:101CA800572E0130582E0030F3005A085B040319F0
:101CB8005E2E602E0130612E003073050038031946
:101CC800662E672E712E0130E2070318E30A0030F2
:101CD800E307F430DA000130DB00061B742E762EA1
:101CE8000130772E0030F3005A085B0403197D2E6B
:101CF8007F2E0130802E0030730500380319852EA1
:101D0800862E902EFF30E2070318E30AFF30E30720
:101D1800F430DA000130DB00861A932E952E01305C
:101D2800962E0030F3005A085B0403199C2E9E2E51
:101D380001309F2E0030730500380319A42EA52EFC
:101D4800AF2E0130E4070318E50A0030E507F43048
:101D5800DA000130DB00061AB22EB42E0130B52E9F
:101D68000030F3005A085B040319BB2EBD2E013066
:101D7800BE2E0030730500380319C32EC42ECE2E94
:101D8800FF30E4070318E50AFF30E507F430DA000E
:101D98000130DB008619D12ED32E0130D42E00302D
:101DA800F3005A085B040319DA2EDC2E0130DD2E0D
:101DB8000030730500380319E22EE32EED2E0130B2
:101DC800E6070318E70A0030E707F430DA000130C5
:101DD800DB000619F02EF22E0130F32E0030F3004E
:101DE8005A085B040319F92EFB2E0130FC2E003033
:101DF800730500380319012F022F0C2FFF30E60757
:101E08000318E70AFF30E707F430DA000130DB0097
:101E180006180F2F112F0130122F0030F3005A0827
:101E28005B040319182F1A2F01301B2F003073057C
:101E380000380319202F212F272FDC01DD01F43072
:101E4800DA000130DB00080083120313861B2D2FF4
:101E58002F2F0130302F0030F3005A085B0403198C
:101E6800362F382F0130392F003073050038031909
:101E78003E2F3F2F492F0130DE070318DF0A0030BD
:101E8800DF07F430DA000130DB00061B4C2F4E2F41
:101E980001304F2F0030F3005A085B040319552F07
:101EA800572F0130582F00307305003803195D2F64
:101EB8005E2F682FFF30DE070318DF0AFF30DF07C9
:101EC800F430DA000130DB00861A6B2F6D2F0130F9
:101ED8006E2F0030F3005A085B040319742F762F15
:101EE8000130772F00307305003803197C2F7D2FC0
:101EF800872F0130E0070318E10A0030E107F430CA
:101F0800DA000130DB00061A8A2F8C2F01308D2F62
:101F18000030F3005A085B040319932F952F013002
:101F2800962F00307305003803199B2F9C2FA62F7E
:101F3800FF30E0070318E10AFF30E107F430DA0068
:101F48000130DB008619A92FAB2F0130AC2F0030F0
:101F5800F3005A085B040319B22FB42F0130B52FD0
:101F68000030730500380319BA2FBB2FC52F013075
:101F7800ED070318EE0A0030EE07F430DA000130FE
:101F8800DB000619C82FCA2F0130CB2F0030F30011
:101F98005A085B040319D12FD32F0130D42F0030F6
:101FA800730500380319D92FDA2FE42FFF30ED0716
:101FB8000318EE0AFF30EE07F430DA000130DB00D8
:101FC8000618E72FE92F0130EA2F0030F3005A08EE
:101FD8005B040319F02FF22F0130F32F0030730543
:101FE80000380319F82FF92FFF2FDC01DD01F43039
:081FF800DA000130DB000800F3
:02400E003A3F37
:00000001FF
