:020000040000FA
:100000000A128A11FC2FFF1B0D2883137F188317F8
:100010000008840A0319FF0A080000308A00040857
:10002000840A82070034013400340A340034643412
:100030000034E8340334103427344F3475347434C6
:1000400020346F3466342034523461346E34673473
:1000500065340034443469347334743461346E3438
:100060006334653420343D34203400342534303456
:0C00700033346434003463346D340034E5
:10009800F100F0013A3071020318532854285C2803
:1000A80030307102031C59285A285C28F001F00AE4
:1000B800700C0800F30083120313891073080A12E6
:1000C8008A1178200A128A118312031309140D3039
:1000D800F200FB30F100F10B6F28F20B6F28742847
:1000E8008312031309100800F000701C7C287D2877
:1000F8008128831203130816842883120313081215
:10010800F01C872888288A2888168B288812701D52
:100118008E288F289128081792280813F01D9528F3
:10012800962898288817992888130800F401F5015B
:10013800701C9F28A028A6287208F4070318F50A3F
:100148007308F50701300310F20DF30DFF3E031D90
:10015800A72801300310F10CF00CFF3E031DAE2858
:1001680070087104031DB928BA289C287508F10085
:100178007408F0000800F20083120313891472084F
:10018800F10004300310F10CFF3E031DC62871086E
:100198000F390A128A1178200A128A11831203135E
:1001A80009142130F100F10BD72883120313091029
:1001B80072080F390A128A1178200A128A118312DA
:1001C800031309142130F100F10BE82883120313FB
:1001D80009100800780879040319F328F42823295A
:1001E800FD01FD0A022901300310F80DF90DFF3E4B
:1001F800031DF8280130FC007C08FD07F91F0529BC
:100208000629F72879087B02031D0C2978087A0249
:10021800031C0F29102916297808FA027908031CEB
:10022800FB03FB0201300310F90CF80CFF3E031D21
:1002380017290130FD02031D2229232906297B08DD
:10024800F9007A08F8000800F801F9014D29780842
:100258007307F6007408F5000318F50AF81F352926
:10026800F5037508F700770883120313FF00760873
:1002780084000A128A1103200A128A110A128A11AA
:10028800BF200A128A110130F8070318F90A003052
:10029800F90778087307F6007408F5000318F50ADB
:1002A800F81F5729F5037508F70077088312031319
:1002B800FF00760884000A128A1103200A128A11A4
:1002C800003A031D682969292B290800F501F60160
:1002D80070087104031971297229A929F701F70A0D
:1002E800802901300310F00DF10DFF3E031D762922
:1002F8000130F4007408F707F11F83298429752950
:1003080001300310F50DF60DFF3E031D8529710818
:100318007302031D912970087202031C9429952900
:100328009C297008F2027108031CF303F302751488
:1003380001300310F10CF00CFF3E031D9D29013024
:10034800F702031DA829A92984297608F100750850
:10035800F00008004130F500EE30F400F40BB2294B
:10036800F50BB229000003300A128A115E200A1226
:100378008A111130F5003A30F400F40BC129F50B5D
:10038800C129000003300A128A115E200A128A115C
:100398003430F500F130F400F40BD029F50BD029F6
:1003A800D52903300A128A115E200A128A110230F6
:1003B8000A128A115E200A128A1102300A128A1160
:1003C8005E200A128A1108300A128A115E200A1267
:1003D8008A1100300A128A115E200A128A11063028
:1003E8000A128A115E200A128A110830F600761560
:1003F8007608F40004300310F40CFF3E031DFF29B7
:1004080074080F390A128A115E200A128A117608B6
:100418000F390A128A115E200A128A1100300A1254
:100428008A115E200A128A1101300A128A115E208E
:100438000A128A1108000310831203133C0D3D0DA4
:10044800C3004308031D292A2A2A332A0030BD0085
:100458000030BC000030BB000030BA00962A3A08D1
:10046800BE003B08BF003C08C0003D08C1001F306B
:100478000310C10CC00CBF0CBE0CFF3E031D3C2A70
:100488003E08C200BC17FF30BA05FF30BB05FF307D
:10049800BC050030BD059630C302C31F542A552A37
:1004A8006F2A4308803A973E03185B2A5C2A5D2A24
:1004B8002A2A01300310BD0CBC0CBB0CBA0CFF3E41
:1004C800031D5E2A0130BE003E08C307031D6D2AC6
:1004D8006E2A5D2A862A20304302031C742A752A54
:1004E800812A2A2A0130BE000310BA0DBB0DBC0DAB
:1004F800BD0DBE0B782A0130C3024308031D852AAF
:10050800862A762A420803198A2A8B2A962ABA0941
:10051800BB09BC09BD09BA0A0319BB0A0319BC0AFD
:100528000319BD0A0800F800780803199C2A9D2AB7
:10053800B12AF31FA02AA12AB12A7009FA00710969
:10054800FB007209FC007309FD00FA0A0319FB0A93
:100558000319FC0A0319FD0AB92A7308FD00720879
:10056800FC007108FB007008FA007308720471043B
:100578007004031DC02AC12ACA2A0030F3000030C3
:10058800F2000030F1000030F0004E2B9630F900F8
:10059800DA2A0130F4007408F90701300310FD0C61
:1005A800FC0CFB0CFA0CFF3E031DD22AFE307D0525
:1005B800031DDF2AE02ACD2AFC2A0130F400740842
:1005C800F9070130FA07003003180130FB07003043
:1005D80003180130FC07003003180130FD07013013
:1005E8000310FD0CFC0CFB0CFA0CFF3E031DF42A57
:1005F800FF307D05031D012B022BE12A0E2B013054
:10060800F9020130F4000310FA0DFB0DFC0DFD0D8D
:10061800F40B072BFC1B112B122B182B0230790221
:100628000318172B182B032B79181B2B1C2B242B87
:10063800FF30FA05FF30FB057F30FC05FF30FD0574
:100648000310F90C7908F400F501F601F7011830E8
:100658000310F40DF50DF60DF70DFF3E031D2C2BC1
:100668007408FA047508FB047608FC047708FD048E
:1006780078080319402B412B462BF31F442B452B9D
:10068800462BFD177D08F3007C08F2007B08F1007B
:100698007A08F000080083160313880189014E3098
:1006A8009F000A128A11AE210A128A11103083168D
:1006B8000313860010308312031390008312031370
:1006C8008F018E018616073083120313C400C40BF2
:1006D8006B2B0000831203138612061E742B752BD6
:1006E800712B1014061A792B7A2B762B10100F0801
:1006F800CC000E08CB004B08F0004C08F10000308D
:10070800F11BFF30F200F30001300A128A11972220
:100718000A128A11730883120313A7007208A6002D
:100728007108A5007008A4004230A3006B30A20035
:100738004730A100AE30A0000A128A1129260A12F9
:100748008A11831203132308BD002208BC00210864
:10075800BB002008BA000A128A111F220A128A1145
:10076800831203133B08CC003A08CB004B08013E28
:10077800CB004C080318013E003ECC004C08803AE0
:10078800FF0080307F02031DCB2B02304B02031C7D
:10079800CE2BCF2B382C831203134C08803AFF0042
:1007A80081307F02031DDA2B91304B020318DD2BB9
:1007B800DE2B382C243083120313A0004C08A2002F
:1007C8004B08A10047300A128A116B240A128A11B9
:1007D80000300A128A115E200A128A1101300A12A8
:1007E8008A115E200A128A110C300A128A115E20C0
:1007F8000A128A1100300A128A115E200A128A111E
:100808001830F3008030F4000A128A1128210A12E5
:100818008A110C300A128A115E200A128A110B30D2
:100828000A128A115E200A128A114730F30000303A
:10083800F4000A128A1128210A128A110C300A12AD
:100848008A115E200A128A110E300A128A115E205D
:100858000A128A112930F3008030F4000A128A1132
:1008680028210A128A11592C00300A128A115E2096
:100878000A128A1101300A128A115E200A128A119C
:100888000C300A128A115E200A128A1101300A12EB
:100898008A115E200A128A110B30F3008030F400AE
:1008A8000A128A1128210A128A11063083120313A8
:1008B800C6001330C500AD30C400C40B612CC50B95
:1008C800612CC60B612C622B0A128A110028831234
:1008D8000313AD002130A600142E25302E0603196F
:1008E800762C772C812C2D0884002E088313800009
:1008F8000130A3002308AD07142EAB01AC01AA01F7
:100908008A2C2A150130A3002308A0072008840098
:100918000A128A110D200A128A11A300A4012408C0
:10092800003A0319982C9D2C2308303A0319852C7A
:100938009D2C200884000A128A110D200A128A119F
:100948000A128A114C200A128A11031CAC2CAD2CF5
:10095800ED2C83120313AB01AC010A30F000003018
:10096800F100831203132C08F3002B08F2000A127B
:100978008A119A200A128A11710883120313AC0093
:100988007008AB00200884000A128A110D200A1290
:100998008A11D03EA300FF3003180030A4002308BA
:1009A800AB070318AC0A2408AC070130A3002308DE
:1009B800A007200884000A128A110D200A128A1141
:1009C8000A128A114C200A128A110318EC2CED2CF9
:1009D800B12C013083120313A007FF3020078400D5
:1009E8000A128A110D200A128A11AE00A300A4016E
:1009F8002408003A0319012D142E2308003A03197C
:100A0800242E643A03190C2D0D3A03190C2D142EBB
:100A18002608840083130008A800840A0008A90097
:100A28000230A3002308A607A91F1B2D1C2D252D66
:100A38000330A3002308AA04A809A909A80A0319CE
:100A4800A90AAE01AE0A2E08A3002307013E8400BE
:100A58000A128A110D200A128A11A4000A128A1198
:100A68000D200A128A11A50025082902031D3E2D12
:100A7800240828020318412D422D432D4D2D013005
:100A8800A3002308AE0705302E06031D4C2D4D2D5F
:100A9800272D2B082C040319522D532D5F2D2A08BE
:100AA80003390319582D592D5F2DFF30AB07031853
:100AB800AC0AFF30AC072C08803A803C031D662D39
:100AC8002B082E020318692D6A2D762D8312031325
:100AD8002E08A300A4012308AB022408031CAC03BE
:100AE800AC027A2D83120313AB01AC012A1D7D2DB4
:100AF8007E2DA92D2A0803390319832D842D8D2DC8
:100B08002D0884002D30831380000130A3002308B2
:100B1800AD072B082C040319922D932DD32D2D08E6
:100B280084003030831380000130A3002308AD0710
:100B3800FF30AB070318AC0AFF30AC072B082C04B6
:100B4800031DA72DA82D932DD32D2B082C04031995
:100B5800AE2DAF2DC42D2D088400203083138000C6
:100B68000130A3002308AD07FF30AB070318AC0A18
:100B7800FF30AC072B082C04031DC32DC42DAF2D4B
:100B88002A0803390319C92DCA2DD32D2D0884002D
:100B98002D30831380000130A3002308AD072E08F1
:100BA800A7000B2E0A30F8000030F9002708A30030
:100BB8002307013E84000A128A110D200A128A11A5
:100BC800F0000A128A110D200A128A11F100290870
:100BD800F3002808F2000A128A116A210A128A11FF
:100BE8007108FB007008FA000A128A11EE200A1236
:100BF8008A117808303E83120313AE002D08840052
:100C08002E08831380000130A3002308AD07FF30AE
:100C1800A3002308A707270A031D132E142ED62D79
:100C28000130A007FF30200784000A128A110D2026
:100C38000A128A11AE002E08031D232E242E712CB1
:100C48002D088400831380010800831203132708EA
:100C58008039B1002708A8002807B800A61F352E3C
:100C6800362E372E3814380803193B2E3C2E4C2EBE
:100C7800380A031D402E412E492E0030A7000030AF
:100C8800A6000030A5000030A400A617A701542E26
:100C98000030A7000030A6000030A5000030A400F6
:100CA80023088039A8002808B1062308A8002807C7
:100CB800B900A21F602E612E622E3914390803195B
:100CC800662E672E772E390A031D6B2E6C2E742E16
:100CD8000030A3000030A2000030A1000030A000C6
:100CE800A217A3017F2E0030A3000030A20000301D
:100CF800A1000030A0002308220421042004031DC1
:100D0800862E872EA02E0030A7000030A6000030C7
:100D1800A5000030A4008030A6047F30A704310865
:100D2800A8002808A7042708A3002608A200250869
:100D3800A1002408A000FB2F3808031DA42EA52E0F
:100D4800AE2E0030A3000030A2000030A100003019
:100D5800A000FB2F3808A800A9012908AB00390812
:100D68002802AA00031CAB032A087F3EB2002B0806
:100D78000318013E003EB3002708B0002608AF0064
:100D88002508AE002408AD000030A7000030A600FA
:100D98000030A5000030A4000030B7000030B600D5
:100DA8000030B5000030B400B901242F3908031908
:100DB800DE2EDF2EFF2E0130A8000310AD0DAE0D84
:100DC800AF0DB00DA80BE12E0130A8000310A40D43
:100DD800A50DA60DA70DA80BEA2EB71FF42EF52E0C
:100DE800F62E24140130A8000310B40DB50DB60D6D
:100DF800B70DA80BF82E23083002031D0D2F22086B
:100E08002F02031D0D2F21082E02031D0D2F200870
:100E18002D02031C102F112F202F37172008AD0289
:100E28002108031C210FAE022208031C220FAF0267
:100E38002308031C230FB0020130A8002808B907B3
:100E48001A303902031C292F2A2FDA2E30082F04D2
:100E58002E042D040319312F322F512F3414512F02
:100E68000130A8000310A40DA50DA60DA70DA80B11
:100E7800362FB71F402F412F422F24140130A800CE
:100E88000310B40DB50DB60DB70DA80B442FFF30E8
:100E9800B2070318B30AFF30B307A61F542F552F04
:100EA800342FB901B71F592F5A2F762FFF30340529
:100EB800A800FF303505A900FF303605AA007F30AD
:100EC8003705AB002B082A042904280403196D2FC1
:100ED8006E2F712FB901B90A762F241C742F752F24
:100EE800762F6E2F390803197A2F7B2FAC2F0130FC
:100EF800A407003003180130A5070030031801309B
:100F0800A607003003180130A707271C8C2F8D2F48
:100F1800AC2F2408A8002508A9002608AA0027083D
:100F2800AB000130AC002B0DAB0CAA0CA90CA80C23
:100F3800AC0B972F2B08A7002A08A6002908A500A4
:100F48002808A4000130B2070318B30A0030B30719
:100F58003308803AFF0080307F02031DB52FFF3031
:100F68003202031CB82FB92FC72FFF308312031387
:100F7800B2000030B3000030A7000030A6000030F7
:100F8800A5000030A400831203133308803AFF0041
:100F980080307F02031DD22F013032020318D52F73
:100FA800D62FE32F83120313B201B3010030A70039
:100FB8000030A6000030A5000030A400B101831263
:100FC80003133208B800381CEA2FEB2FED2FA617B1
:100FD800F12F7F30A8002808A6053808A8000310BC
:100FE800280CA7003108A8002808A704972E080095
:080FF80083010A128A114F2B3C
:02400E003A3F37
:00000001FF
