:020000040000FA
:100000000A128A11F02FFF1B0D2883137F18831704
:100010000008840A0319FF0A080000308A00040857
:10002000840A82070034253463342534633425344C
:100030006334253463342534633425346334253400
:100040006334253463340A34003452346534633401
:10005000693465347634653464342034253473343B
:100060000A34003442344F344F3454344534443429
:100070000A34003428346E3475346C346C342934CA
:0200800000344A
:10099400F00083160313981CD02CD12CCB2C700898
:1009A4008312031399000800F601F701F62C760868
:1009B4007107F4007208F3000318F30AF61FE32C1E
:1009C400F3037308F500740884008317751C8313FC
:1009D40000080A128A11CA240A128A110130F60781
:1009E4000318F70A0030F70776087107F400720855
:1009F400F3000318F30AF61F002DF3037308F50040
:100A0400740884008317751C83130008031D0B2DC1
:100A14000C2DD92C08008316031318158312031305
:100A24002608AE002708AF002808B0002908B10046
:100A340004300310AE0DAF0DB00DB10DFF3E031D1C
:100A44001B2D3108F3003008F2002F08F1002E08A6
:100A5400F0002608B2002708B3002808B4002908CB
:100A6400B50004300310B20DB30DB40DB50DFF3E47
:100A7400031D342D2A08B6002B08B7002C08B80033
:100A84002D08B9003208B6023308031C330F4B2D6E
:100A94004C2DB7023408031C340F512D522DB802CB
:100AA4003508031C350F572D582DB9023908F700A6
:100AB4003808F6003708F5003608F4000A128A11DF
:100AC400AC260A128A1170088316031399001812AF
:100AD40083120313981783160313871707178312B8
:100AE40003131816831603139816080083120313AE
:100AF400C30043187E2D7F2D842D3030B300003089
:100B0400B400882D3130B3000030B400C3188B2DED
:100B14008C2D912D3030B5000030B600952D31303C
:100B2400B5000030B6004319982D992D9E2D303014
:100B3400B7000030B800A22D3130B7000030B80043
:100B4400C319A52DA62DAB2D3030B9000030BA0045
:100B5400AF2D3130B9000030BA00431AB22DB32D95
:100B6400B82D3030BB000030BC00BC2D3130BB0090
:100B74000030BC00C31ABF2DC02DC52D3030BD00C0
:100B84000030BE00C92D3130BD000030BE00431B13
:100B9400CC2DCD2DD22D3030BF000030C000D62D4D
:100BA4003130BF000030C000C31BD92DDA2DDF2D3A
:100BB4003030C1000030C200E32D3130C1000030BC
:100BC400C2004830A0000030A1000130A200420859
:100BD400A4004108A3004008A6003F08A5003E0861
:100BE400A8003D08A7003C08AA003B08A9003A0851
:100BF400AC003908AB003808AE003708AD00360841
:100C0400B0003508AF003408B2003308B1000A124E
:100C14008A1149270A128A11483008007030831655
:100C240003138F04003083120313A9000030A800BB
:100C34002530A7008030A6000030AD007A30AC002B
:100C44001230AB000030AA000A128A110D250A12D4
:100C54008A11A03083120313A0000030A1002030B9
:100C6400A2000A128A1149270A128A11A030F1003F
:100C74000030F2000A128A11D6240A128A1183164D
:100C84000313081683120313081E492E4A2E442EFA
:100C94002030FA002930F900F90B4E2EFA0B4E2EB3
:100CA400532E83120313C501C601C70100308312FA
:100CB4000313081A0130F900460A622E0310F90DD5
:100CC400FF3E031D602E7908FA007A08C5041A3025
:100CD400FA00F830F900F90B6D2EFA0B6D2E0000B6
:100CE400013083120313C6070318C70A0030C7076D
:100CF4004708803AFF0080307F02031D832E0830AE
:100D04004602031C862E872E582E83120313450891
:100D14000A128A1178250A128A1183120313C40055
:100D24009030A0000130A1001330A2004408A300B9
:100D34000A128A1149270A128A119030F1000130EF
:100D4400F2000A128A11D6240A128A11442E0A12B7
:100D54008A11002883120313A101F31FB22EB32EAC
:100D6400C02EF009F109F209F309F00A0319F10A96
:100D74000319F20A0319F30AA101A10AF71FC32EEA
:100D8400C42ED32EF409F509F609F709F40A031958
:100D9400F50A0319F60A0319F70A0130F80078086E
:100DA400A1060030A5000030A4000030A3000030EC
:100DB400A20073087204710470040319E22EE32E76
:100DC400302FA001A00AF32E0130F8000310F00D1B
:100DD400F10DF20DF30DF80BE82E0130F800780850
:100DE400A007F31FF62EF72EE62E0130F8000310AD
:100DF400A20DA30DA40DA50DF80BF92E730877020F
:100E0400031D0E2F72087602031D0E2F7108750242
:100E1400031D0E2F70087402031C112F122F212F93
:100E24007008F4027108031C710FF5027208031CA8
:100E3400720FF6027308031C730FF70222140130B9
:100E44000310F30CF20CF10CF00CFF3E031D222FE7
:100E54000130A002031D2F2F302FF72E2108031974
:100E6400342F352F402FA209A309A409A509A20AEA
:100E74000319A30A0319A40A0319A50A2508F300F0
:100E84002408F2002308F1002208F00008002330AF
:100E9400F200D72F253075060319512F522F602FDA
:100EA400200884008317211C8313750880000130F7
:100EB400A0070318A10A0030A107D72FBA2F720880
:100EC400840083130008F3000030F4000130F000C4
:100ED4007008F20773087404031D712F722F942F86
:100EE4002830F3008030F400942F7408FF00730856
:100EF40084000A128A1103200A128A11F0002008C1
:100F040084008317211C8313700880000130F307C9
:100F14000318F40A0030F4070130A0070318A10AEB
:100F24000030A1077408FF00730884000A128A11B4
:100F340003200A128A11003A031DA12FA22F772F32
:100F4400D72F7208840083130008F5000230F000E4
:100F54007008F207200884008317211C8313750886
:100F640080000130A0070318A10A0030A107D72F81
:100F74000130A207FF30220784000A128A110D20D3
:100F84000A128A11F500F000F1017108003A031900
:100F9400CC2FAC2F7008003A0319E92F633A0319D8
:100FA400A32F103A0319612FAC2F013083120313BE
:100FB400A207FF30220784000A128A110D200A12A8
:100FC4008A11F5007508031DE82FE92F4C2F20081E
:100FD40084008317211C83138001080083120313E8
:100FE400C801C901CA01CB01CC01CD01CE01CF0199
:0C0FF400D001D10183010A128A11102ED5
:04400E00F22CFF3F52
:00000001FF
