:020000040000FA
:060000000A128A11FC2F18
:100F8400831203131308080083160313140801398A
:100F94000800253083120313940083160313871269
:100FA400871508008316031386010A128A11DF27A6
:100FB4000A128A110A128A110028013083120313BB
:100FC40086000A128A11CB270A128A110A128A1180
:100FD400C6270A128A11003A0319F12FF22FE82FBB
:100FE4000A128A11C2270A128A1183120313860075
:0C0FF400E82F080083010A128A11D42F94
:02400E003A3F37
:00000001FF
