:020000040000FA
:020000000B28CB
:10000800DE00030E8312A4000A08A50082280C282B
:10001800830199288312A100A2010514A3010310EA
:10002800A20D051500008312051C1B281C281D287D
:1000380022140511000001308312A0002008A30734
:1000480008302302031C29282A2813282108031909
:100058002E282F28302805100515000083120511B9
:10006800000083120514220808008312A100A201CF
:100078008510A301A11F41284228442805164528B8
:100088000512851485100310A20D00308519013062
:10009800A0002008A2040310A10D0130A000200830
:1000A800A30708302302031C5A285B283E280310A4
:1000B800A20C220808008312A100A201A11F652832
:1000C800662868280514692805100310A10D051570
:1000D800000083120511000001308312A0002008DF
:1000E800A20708302202031C7A287B2862280514FC
:1000F8000515000083120511000008000B1C852857
:100108008628912800300E208312A6002608392060
:100118008312A70027085F200B10831225088A0086
:10012800240E8300DE0E5E0E090083169F018312E3
:100138009F01073099008316990185018312850173
:10014800AA208B1583160113A8280B28831685105F
:0C015800051285158312851005120800A1
:02400E00C431BB
:00000001FF
