:020000040000FA
:02000000E62FE9
:100E460001340234033404340534063407340834D8
:100E560009340A3400340B34F300F201731C342FC6
:100E6600352F392F7008F1007108F2070310F00DC5
:100E76000310F30C7308031D412F422F312F720804
:100E86000800831691018701073085000730831219
:100E96009904F90105120711871007105A2F051634
:100EA600702F0715702F8714702F0714702F79086D
:100EB600F400F5017508003A0319622F702F7408C3
:100EC600003A0319522F013A0319542F033A031912
:100ED600562F013A0319582F702F871107128712C0
:100EE60085120519772F782F802F85187B2F7C2F59
:100EF600802F051C7F2F802FDA2F003085180130B8
:100F0600F40001300310F40DFF3E031D852F03305E
:100F1600F0000030051801302F27740783120519D9
:100F2600013EF6000330F00079082F277607FF3ED2
:100F3600F7007708203E840083130008F80078182D
:100F4600A52FA82F83128715AA2F83128711780839
:100F5600F40001300310F40CFF3E031DAD2F74188E
:100F6600B52FB82F83120716BA2F831207127808E7
:100F7600F40002300310F40CFF3E031DBD2F74185D
:100F8600C52FC82F83128716CA2F83128712780897
:100F9600F40003300310F40CFF3E031DCD2F74182C
:100FA600D52FD82F83128516DA2F8312851201309A
:100FB600F4007408F90704307902031CE32FE42FC8
:100FC6004D2F4C2F00282327A0002427A1002527DA
:100FD600A2002627A3002727A4002827A500292743
:100FE600A6002A27A7002B27A8002C27A9002D2713
:0A0FF600AA002E27AB008301442F50
:02400E00E4309C
:00000001FF
