:020000040000FA
:100000000A128A11FC2FFF1B0D2883137F188317F8
:100010000008840A0319FF0A080000308A00040857
:10002000840A820700346D34793461346434723464
:0200300000349A
:100D660083120313130808008312031394168316C1
:100D760003138712871507160800F0007008831200
:100D86000313930083160313141CCA2ECB2EC52EF1
:100D96000800F10161300A128A11DB260A128A1153
:100DA6000A128A11B3260A128A11F3007308080080
:100DB600F20083120313071172080A128A11C02661
:100DC6000A128A1171080A128A11C0260A128A1199
:100DD60083120313071508007908F1007A08F20058
:100DE6007B08F30000300A128A11BD270A128A1105
:100DF6008312031387140830FC00FC0B002F032F0B
:100E0600831203138710080083120313071C0C2F89
:100E16000D2F2C2FF10100300A128A11DB260A123F
:100E26008A110A128A11B3260A128A11F30073086C
:100E36004039F40074080319212F222F2C2F40303B
:100E4600F10000300A128A11DB260A128A110130DB
:100E56002D2F00300800831603130714871007117F
:100E660083120313871407150A128A11B7260A126A
:100E76008A110730F10000300A128A11DB260A12A5
:100E86008A11F101F10A00300A128A11DB260A12D0
:100E96008A110130F1008030F2000530F300003095
:100EA6000A128A11BD270A128A1108008316031333
:100EB60007148710071183120313871007150A12E8
:100EC6008A11B7260A128A110630F10000300A127A
:100ED6008A11DB260A128A110130F1008030F200F5
:100EE6000530F30000300A128A11BD270A128A1152
:100EF6000130F1008030F2000530F30000300A12B4
:100F06008A11BD270A128A1108000A128A112E2791
:100F16000A128A11FF3083160313860087170A12F6
:100F26008A1107270A128A11003A03199B2F9C2F50
:100F3600922F8312031387171A3083120313A2000A
:100F46005E30A1006D30A000A00BA72FA10BA72F2C
:100F5600A20BA72FAE2F8312031387130A128A112F
:100F6600CC260A128A11831203138600922F0A12C4
:100F76008A110028F70083120313071177080A1253
:100F86008A11C0260A128A11F801E62F7808F400A1
:100F9600F501F41BF503740871078400750803183E
:100FA600750A720783120313FF000A128A110320BF
:100FB6000A128A110A128A11C0260A128A110130EF
:100FC600F4007408F8077808F400F501F41BF5033B
:100FD6007508803AF60080307602031DF42F7308F8
:100FE6007402031CF72FF82FC92F8312031307155A
:0A0FF600080083010A128A11882FF7
:02400E003A3F37
:00000001FF
