:020000040000FA
:100000000A128A11FC2F00308A000408840A820731
:10001000003420342034483445344C344C344F348C
:10002000203457344F3452344C3444342134203447
:040030002034003444
:100D8A00F30083120313891073080A128A11DF26EB
:100D9A000A128A118312031309140D30F200FB3070
:100DAA00F100F10BD62EF20BD62EDB2E8312031393
:100DBA0009100800F000701CE32EE42EE82E8312BE
:100DCA0003130816EB2E831203130812F01CEE2EDF
:100DDA00EF2EF12E8816F22E8812701DF52EF62EA1
:100DEA00F82E0817F92E0813F01DFC2EFD2EFF2EE3
:100DFA008817002F88130800F500F301F401182F53
:100E0A007308750784000A128A1103200A128A11CC
:100E1A000A128A1126270A128A110130F3070318C7
:100E2A00F40A0030F4077308750784000A128A115D
:100E3A0003200A128A11003A031D242F252F052F99
:100E4A000800F2008312031389147208F1000430B7
:100E5A000310F10CFF3E031D2D2F71080F390A12E2
:100E6A008A11DF260A128A11831203130914213008
:100E7A00F100F10B3E2F83120313091072080F3988
:100E8A000A128A11DF260A128A118312031309141D
:100E9A002130F100F10B4F2F8312031309100800C0
:100EAA00831603138801890107309C004E309F0086
:100EBA000A128A118B270A128A1110308316031319
:100ECA008600103083120313900000300A128A1130
:100EDA00C5260A128A1101300A128A11C5260A1277
:100EEA008A110C300A128A11C5260A128A11003098
:100EFA000A128A11C5260A128A1101300A128A11A7
:100F0A0001270A128A110A128A1100284130F500B3
:100F1A00EE30F400F40B8F2FF50B8F2F0000033007
:100F2A000A128A11C5260A128A111130F5003A30BE
:100F3A00F400F40B9E2FF50B9E2F000003300A12CB
:100F4A008A11C5260A128A113430F500F130F400EC
:100F5A00F40BAD2FF50BAD2FB22F03300A128A1105
:100F6A00C5260A128A1102300A128A11C5260A12E5
:100F7A008A1102300A128A11C5260A128A11083009
:100F8A000A128A11C5260A128A1100300A128A1117
:100F9A00C5260A128A1106300A128A11C5260A12B1
:100FAA008A110830F60076157608F400043003102A
:100FBA00F40CFF3E031DDC2F74080F390A128A1144
:100FCA00C5260A128A1176080F390A128A11C5260D
:100FDA000A128A1100300A128A11C5260A128A11C7
:100FEA0001300A128A11C5260A128A1108008301E1
:060FFA000A128A11552FB6
:02400E003A3F37
:00000001FF
