:020000040000FA
:02000000ED2BE6
:100434008316851005128515831285100512080090
:10044400453445340034013404340634043405346A
:100454008312AE002C08A4002D08A5002E08FE224D
:1004640008008312AC002A08A4002B08A5002C085D
:100474002038B92208008312A40085122408D82247
:100484008312A50085162508080070308312AD007C
:100494002D30AA00AB01AB0A07303322E1303D22F4
:1004A400E2303D2208008312AF002F08AA002D0875
:1004B400AB00A0303322831205140630AE00AE0B1D
:1004C400612A00008312051008008312B300802201
:1004D40083123108AD0033085522FF303D228312C8
:1004E400B200B21E762A772A6F2A2030B400343044
:1004F400AA00AB01AB0A0730332208003030831264
:10050400AC00AD01AD0A00302A2283120510301868
:100514008C2A8D2A8E2A9A2AFE30AF002F08B00525
:100524003030AA00AB01AB0A00303322831205102D
:1005340008008312A500A601B22A26082007A200FB
:100544002208840083130008A30026082507A400BA
:1005540024088400230880000130A2002208A60792
:1005640021082602031CB72AB82A9F2A08008312EE
:10057400A70085122708D8228312A800A901CF2A30
:1005840029082407A6002608840083130008D8221B
:1005940001308312A6002608A90725082902031C96
:1005A400D42AD52AC22A8516280808008312A10055
:1005B400A2018510A301A11FE02AE12AE32A05165E
:1005C400E42A0512851485100310A20D0030851944
:1005D4000130A0002008A2040310A10D0130A000E6
:1005E4002008A30708302302031CF92AFA2ADD2A6B
:1005F4000310A20C220808008312A90085122908FE
:10060400D8228312AA00AB011D2B2B082407A600B5
:100614002608840083130008D8228312A7002B081D
:100624002407A800280884002708831380000130C9
:10063400A6002608AB0725082B02031C222B232B1C
:10064400072B85162A08080083169F0183129F0131
:1006540007309900831699018501831285011A22B6
:1006640005308312AE000330AF0040305D2380229A
:10067400831205153D08BA003E08BB003F08BC00C4
:100684000330B1003A30672282308312B900DD3082
:10069400B800B80B4B2BB90B4B2B502B8312051105
:1006A4008230B900DD30B800B80B562BB90B562B8D
:1006B4005B2B3A2B00288312B20083168512051097
:1006C4008312851605108230B100DD30B000B00B06
:1006D400692BB10B692B6E2B0B308312B3003330B3
:1006E400AA00AB01AB0A003033228312B3013330CA
:1006F400AA00AB01AB0A013033228312B301B30A5F
:100704003330AA00AB01AB0A02303322922BB3017F
:10071400B30AA62B0230B300A62B0330B300A62BDA
:1007240083122E08B000B1013108003A03199B2B43
:10073400A62B3008033A0319892B073A03198C2B8B
:10074400013A03198F2BA62B3330AA00AB01AB0A55
:10075400033033228312B3013330AA00AB01AB0A56
:10076400043033228312B301B30A3330AA00AB013D
:10077400AB0A0530332226308312B3003330AA008B
:10078400AB01AB0A0630332283122F08B300333097
:10079400AA00AB01AB0A1130332283123208A00045
:1007A4002E08A10033309B2233308312AA002E0876
:1007B400AB000A30332283123208A0002E08A100B5
:1007C40033309B2233308312AA002E08AB00103042
:1007D4003322472208002222BD002322BE00242205
:1007E400BF002522C0002622C1002722C2002822E1
:0A07F400C3002922C4008301262B54
:02400E00C431BB
:00000001FF
