:020000040000FA
:02000000ED2BE6
:10042800831685100512851583128510051208009C
:10043800533453340034013404340634043405345A
:100448008312AE002C08A4002D08A5002E08F8225F
:1004580008008312AC002A08A4002B08A5002C0869
:100468002038B32208008312A40085122408D2225F
:100478008312A50085162508080070308312AD0088
:100488002D30AA00AB01AB0A07302D22E13037220C
:10049800E230372208008312AF002F08AA002D0887
:1004A800AB00A0302D22831205140630AE00AE0B2F
:1004B8005B2A00008312051008008312B3007A2219
:1004C80083123108AD0033084F22FF3037228312E0
:1004D800B200B21E702A712A692A2030B400343062
:1004E800AA00AB01AB0A07302D2208003030831276
:1004F800AC00AD01AD0A003024228312051030187B
:10050800862A872A882A942AFE30AF002F08B00549
:100518003030AA00AB01AB0A00302D22831205103F
:1005280008008312A500A601AC2A26082007A2000D
:100538002208840083130008A30026082507A400C6
:1005480024088400230880000130A2002208A6079E
:1005580021082602031CB12AB22A992A080083120C
:10056800A70085122708D2228312A800A901C92A48
:1005780029082407A6002608840083130008D2222D
:1005880001308312A6002608A90725082902031CA2
:10059800CE2ACF2ABC2A8516280808008312A10073
:1005A800A2018510A301A11FDA2ADB2ADD2A05167C
:1005B800DE2A0512851485100310A20D0030851956
:1005C8000130A0002008A2040310A10D0130A000F2
:1005D8002008A30708302302031CF32AF42AD72A89
:1005E8000310A20C220808008312A900851229080A
:1005F800D2228312AA00AB01172B2B082407A600CE
:100608002608840083130008D2228312A7002B082F
:100618002407A800280884002708831380000130D5
:10062800A6002608AB0725082B02031C1C2B1D2B34
:10063800012B85162A08080083169F0183129F0143
:1006480007309900831699018501831285011422C8
:1006580005308312AE000330AF0041305D237A22AB
:10066800831205153E08BB003F08BC004008BD00CA
:100678000330B1003B30612203308312BA000830E6
:10068800B9007730B800B80B472BB90B472BBA0B1A
:10069800472B831205110330BA000830B9007730B0
:1006A800B800B80B552BB90B552BBA0B552B342B5F
:1006B80000288312B200831685120510831285164E
:1006C80005108230B100DD30B000B00B692BB10BE2
:1006D800692B6E2B0B308312B3003330AA00AB01A9
:1006E800AB0A00302D228312B3013330AA00AB01CC
:1006F800AB0A01302D228312B301B30A3330AA00AA
:10070800AB01AB0A02302D22922BB301B30AA62B00
:100718000230B300A62B0330B300A62B83122E0899
:10072800B000B1013108003A03199B2BA62B300801
:10073800033A0319892B073A03198C2B013A031939
:100748008F2BA62B3330AA00AB01AB0A03302D2226
:100758008312B3013330AA00AB01AB0A04302D2257
:100768008312B301B30A3330AA00AB01AB0A0530D8
:100778002D2226308312B3003330AA00AB01AB0A16
:1007880006302D2283122F08B3003330AA00AB01A4
:10079800AB0A11302D2283123208A0002E08A100C6
:1007A8003330952233308312AA002E08AB000A306A
:1007B8002D2283123208A0002E08A1003330952282
:1007C80033308312AA002E08AB0010302D224122AC
:1007D80008001C22BE001D22BF001E22C0001F22CE
:1007E800C1002022C2002122C3002222C4002322E9
:0607F800C5008301202B67
:02400E00C431BB
:00000001FF
