:020000040000FA
:02000000FD2BD6
:10072400093083129F00080083129F149F189B2B8B
:100734009C2B982B1E08080083169F0183129F018F
:1007440007309900831699010430850092230D30F7
:100754008312A100FB30A000A00BAE2BA10BAE2B8B
:10076400B32B8312A501A301A40196238312A20033
:10077400220825020318BF2BC02BC52B0130A00073
:100784002008A507C72B0130A5020730A1007D3042
:10079400A000A00BCB2BA10BCB2B01308312A30702
:1007A4000318A40A0030A4072408803ADF0081302B
:1007B4005F02031DDF2B90302302031CE22BE32B8B
:1007C400B72B02308312A0002008A50796238312BA
:1007D40025020318EE2BEF2BF12B0516F22B051235
:1007E4008230A100DD30A000A00BF62BA10BF62B6C
:0A07F400FB2BE82B002883019E2B4D
:02400E00C431BB
:00000001FF
