:020000040000FA
:060000000A128A11FC2F18
:100F4600203083120313940083160313871287112C
:100F560008008316031386010A128A11C3270A1290
:100F66008A110A128A110028F000700883120313EE
:100F7600930083160313141CC12FC22FBC2F080025
:100F860080308312031386000A128A11A3270A12DD
:100F96008A11333083120313860033300A128A1102
:100FA600B7270A128A110D30F300AF30F200B630BF
:100FB600F100F10BDC2FF20BDC2FF30BDC2F000022
:100FC600CC30831203138600CC300A128A11B7275D
:100FD6000A128A110D30F300AF30F200B630F1007C
:100FE600F10BF32FF20BF32FF30BF32F0000CC2FA3
:0A0FF600080083010A128A11AC2FD3
:02400E003A3F37
:00000001FF
