:020000040000FA
:02000000E22FED
:10096C0001340234033404340534063407340834B7
:10097C0009340A3400340B34F100640083169C18DB
:10098C00C82CC92CC32C71089B003F30F000700898
:10099C009C051C141A080800F300F201731CD72CD8
:1009AC00D82CDC2C7008F1007108F2070310F00D44
:1009BC000310F30C7308031DE42CE52CD42C7208E3
:1009CC0008008030831692000730831292000330A7
:1009DC00F2000830F1007730F000F00BF32CF10B43
:1009EC00F32CF20BF32C831292010800FF308316C8
:1009FC0092000730831292000530F2000F30F100A4
:100A0C00F130F000F00B082DF10B082DF20B082D36
:100A1C00831292010800F500F601222D7608720768
:100A2C00F4007408840076087507C22483138000D0
:100A3C000130F4007408F60773087602031C272DA6
:100A4C00282D142D0800F600F7013B2D77087307AD
:100A5C00F5007508840083130008F000770876070A
:100A6C0083250130F5007508F70774087702031C1D
:100A7C00402D412D2C2D0800F500F601582D76083F
:100A8C007007F2007208840083130008F3007608E4
:100A9C007507F40074088400730880000130F200BC
:100AAC007208F60771087602031C5D2D5E2D452D2C
:100ABC000800F500F6017B2D76087007F20072082D
:100ACC00840083130008F30076087507F40074089B
:100ADC008400000873060319742D752D772D0030D2
:100AEC00822D0130F2007208F60771087602031CA1
:100AFC00802D812D622D01300800F20083169C1888
:100B0C00882D892D842D72089B0070089A003F3027
:100B1C00F10071089C05831203108B1F962D972DE5
:100B2C00982D03148B1383161C1555309D00AA3079
:100B3C009D009C141C118312031CA52DA62DA72D02
:100B4C008B170800FF308316920005308312920039
:100B5C008230F100DD30F000F00BB22DF10BB22D34
:100B6C00B72D831292018230F100DD30F000F00BD2
:100B7C00BD2DF10BBD2DC22D05308312920003301B
:100B8C00F2000830F1007730F000F00BCB2DF10BB8
:100B9C00CB2DF20BCB2D831292010800F030831673
:100BAC0092000430831292000230F2000430F10003
:100BBC00BA30F000F00BE02DF10BE02DF20BE02D34
:100BCC000000831292018230F100DD30F000F00B56
:100BDC00ED2DF10BED2DF22D04308312920002302D
:100BEC00F2000430F100BA30F000F00BFB2DF10BE9
:100BFC00FB2DF20BFB2D0000831292010800F33049
:100C0C00831692000630831292000230F2000430F8
:100C1C00F100BA30F000F00B112EF10B112EF20B8B
:100C2C00112E0000831292018230F100DD30F000B1
:100C3C00F00B1E2EF10B1E2E232E0630831292006B
:100C4C000230F2000430F100BA30F000F00B2C2E20
:100C5C00F10B2C2EF20B2C2E0000831292010800AB
:100C6C0083169101870185018514051485150711DB
:100C7C0087100710051183128516073099040C3064
:100C8C0095008030930083168C143B30F2000430B6
:100C9C00F300003011255B2E6F26013A031D572EF1
:100CAC00582E5B2E0526A9265B2E6F26FA00FB011B
:100CBC007B08003A0319632E5B2E7A08003A03195D
:100CCC005B2E013A03195B2E033A0319522E5B2E4D
:100CDC0000288312AE0128278312AD00982E023013
:100CEC00A82E2E08293E84002D0883138000013085
:100CFC00F7007708AE0704302E02031C862E872ED1
:100D0C00712E3B30F0000430F10029305F25003AA1
:100D1C000319912E922E952ED4250130A82EFC2449
:100D2C000030A82E2D08F700F8017808003A0319B6
:100D3C00A02E772E77080A3A0319752E013A03195B
:100D4C006F2E772E08008312AE013B30F00004307A
:100D5C00F1002930422528278312AD00D72EAE0191
:100D6C00B12E2930F0000430F1003B304225FC2438
:100D7C00E72E2E083B3E84002D08831380000130A3
:100D8C00F8007808AE0704302E02031CCE2ECF2EAE
:100D9C00B12E3B30F3000430F40000302925D4256B
:100DAC00E72E2D08F800F9017908003A0319DF2E17
:100DBC00BF2E78080A3A0319B72E013A0319B52E3B
:100DCC00BF2E0800FF30831692000430831292006D
:100DDC008230F100DD30F000F00BF22EF10BF22E30
:100DEC00F72E831292018230F100DD30F000F00B0F
:100DFC00FD2EF10BFD2E022F043083129200823057
:100E0C00F100DD30F000F00B092FF10B092F0E2F44
:100E1C00831292018230F100DD30F000F00B142FC0
:100E2C00F10B142F192F0430831292008230F10031
:100E3C00DD30F000F00B202FF10B202F252F83122B
:100E4C00920108008312A7010711871007100511E2
:100E5C00372F07154D2F87144D2F07144D2F0515C0
:100E6C004D2F2708F400F5017508003A03193F2FA0
:100E7C004D2F7408003A03192F2F013A0319312F03
:100E8C00033A0319332F013A0319352F4D2F003034
:100E9C0085180130A400003005180130A500003081
:100EAC0085190130A6002408031D5D2F5E2F682FC5
:100EBC002508031D622F632F682F26080319672F3F
:100ECC00682FD62F2508F40001300310F40DFF3ED7
:100EDC00031D6B2F0330F0002608D2247407F50095
:100EEC00831224087507A0000330F0002708D224D1
:100EFC0083122007FF3EA10021082F3E840083139C
:100F0C000008A3008F2FE8269F2FA8259F2FE724EA
:100F1C009F2F2308F400F5017508003A0319972F49
:100F2C008D2F74080A3A03198B2F013A0319892F54
:100F3C008D2F83122608F40002300310F40DFF3EAF
:100F4C00031DA32F2508F50075077407F600240868
:100F5C007607A2000030851904300518023E85186A
:100F6C00013EA800280822060319BD2FBE2FB02F62
:100F7C0028080319C22FC32FD42F28030319C72FF6
:100F8C00C82FD42F023028060319CD2FCE2FD42FE3
:100F9C0004302806031DD32FD42FB02F2308E12FA4
:100FAC000130F4007408A70704302702031CDF2F5C
:100FBC00E02F2A2F282F0800B624AF00B724B0004A
:100FCC00B824B100B924B200BA24B300BB24B400D5
:100FDC00BC24B500BD24B600BE24B700BF24B800A5
:100FEC00C024B900C124BA00BB01BC01BD01BE01C3
:040FFC008301362E09
:02400E00C430BC
:1042000000000000000000000000000000000000AE
:00000001FF
